{
  "contractName": "MyContract",
  "abi": [
    {
      "anonymous": false,
      "inputs": [
        {
          "indexed": false,
          "internalType": "string",
          "name": "fileId",
          "type": "string"
        },
        {
          "indexed": false,
          "internalType": "string",
          "name": "fileHash",
          "type": "string"
        },
        {
          "indexed": false,
          "internalType": "uint256",
          "name": "fileSize",
          "type": "uint256"
        },
        {
          "indexed": false,
          "internalType": "string",
          "name": "fileType",
          "type": "string"
        },
        {
          "indexed": false,
          "internalType": "string",
          "name": "fileName",
          "type": "string"
        },
        {
          "indexed": false,
          "internalType": "string",
          "name": "fileDescription",
          "type": "string"
        },
        {
          "indexed": false,
          "internalType": "uint256",
          "name": "uploadTime",
          "type": "uint256"
        },
        {
          "indexed": false,
          "internalType": "string",
          "name": "studentNo",
          "type": "string"
        }
      ],
      "name": "FileUploaded",
      "type": "event"
    },
    {
      "anonymous": false,
      "inputs": [
        {
          "indexed": false,
          "internalType": "string",
          "name": "id",
          "type": "string"
        },
        {
          "indexed": false,
          "internalType": "string",
          "name": "studentNo",
          "type": "string"
        }
      ],
      "name": "addStudentEvent",
      "type": "event"
    },
    {
      "anonymous": false,
      "inputs": [
        {
          "indexed": false,
          "internalType": "string",
          "name": "id",
          "type": "string"
        },
        {
          "indexed": false,
          "internalType": "string",
          "name": "studentNo",
          "type": "string"
        }
      ],
      "name": "deleteStudentEvent",
      "type": "event"
    },
    {
      "anonymous": false,
      "inputs": [
        {
          "indexed": false,
          "internalType": "string",
          "name": "id",
          "type": "string"
        },
        {
          "indexed": false,
          "internalType": "string",
          "name": "studentNo",
          "type": "string"
        }
      ],
      "name": "updateStudentEvent",
      "type": "event"
    },
    {
      "inputs": [],
      "name": "owner",
      "outputs": [
        {
          "internalType": "address",
          "name": "",
          "type": "address"
        }
      ],
      "stateMutability": "view",
      "type": "function",
      "constant": true
    },
    {
      "inputs": [
        {
          "internalType": "string",
          "name": "_studentNo",
          "type": "string"
        }
      ],
      "name": "getStudent",
      "outputs": [
        {
          "internalType": "string",
          "name": "",
          "type": "string"
        },
        {
          "internalType": "string",
          "name": "",
          "type": "string"
        }
      ],
      "stateMutability": "view",
      "type": "function",
      "constant": true
    },
    {
      "inputs": [
        {
          "internalType": "string",
          "name": "_id",
          "type": "string"
        },
        {
          "internalType": "string",
          "name": "_studentNo",
          "type": "string"
        }
      ],
      "name": "addStudent",
      "outputs": [],
      "stateMutability": "nonpayable",
      "type": "function"
    },
    {
      "inputs": [
        {
          "internalType": "string",
          "name": "_studentNo",
          "type": "string"
        }
      ],
      "name": "deleteStudent",
      "outputs": [],
      "stateMutability": "nonpayable",
      "type": "function"
    },
    {
      "inputs": [
        {
          "internalType": "string",
          "name": "_id",
          "type": "string"
        },
        {
          "internalType": "string",
          "name": "_studentNo",
          "type": "string"
        }
      ],
      "name": "updateStudent",
      "outputs": [],
      "stateMutability": "nonpayable",
      "type": "function"
    },
    {
      "inputs": [
        {
          "internalType": "string",
          "name": "_id",
          "type": "string"
        },
        {
          "internalType": "string",
          "name": "_fileHash",
          "type": "string"
        },
        {
          "internalType": "uint256",
          "name": "_fileSize",
          "type": "uint256"
        },
        {
          "internalType": "string",
          "name": "_fileType",
          "type": "string"
        },
        {
          "internalType": "string",
          "name": "_fileName",
          "type": "string"
        },
        {
          "internalType": "string",
          "name": "_fileDescription",
          "type": "string"
        },
        {
          "internalType": "string",
          "name": "_studentId",
          "type": "string"
        }
      ],
      "name": "uploadFile",
      "outputs": [],
      "stateMutability": "nonpayable",
      "type": "function"
    },
    {
      "inputs": [
        {
          "internalType": "string",
          "name": "studentNo",
          "type": "string"
        }
      ],
      "name": "getFilesOfStudent",
      "outputs": [
        {
          "components": [
            {
              "internalType": "string",
              "name": "id",
              "type": "string"
            },
            {
              "internalType": "string",
              "name": "fileHash",
              "type": "string"
            },
            {
              "internalType": "uint256",
              "name": "fileSize",
              "type": "uint256"
            },
            {
              "internalType": "string",
              "name": "fileType",
              "type": "string"
            },
            {
              "internalType": "string",
              "name": "fileName",
              "type": "string"
            },
            {
              "internalType": "string",
              "name": "fileDescription",
              "type": "string"
            },
            {
              "internalType": "uint256",
              "name": "uploadTime",
              "type": "uint256"
            },
            {
              "internalType": "string",
              "name": "studentId",
              "type": "string"
            }
          ],
          "internalType": "struct MyContract.File[]",
          "name": "",
          "type": "tuple[]"
        }
      ],
      "stateMutability": "view",
      "type": "function",
      "constant": true
    }
  ],
  "bytecode": "0x6080604052336000806101000a81548173ffffffffffffffffffffffffffffffffffffffff021916908373ffffffffffffffffffffffffffffffffffffffff16021790555034801561005057600080fd5b50612240806100606000396000f3fe608060405234801561001057600080fd5b506004361061007d5760003560e01c80638da5cb5b1161005b5780638da5cb5b146100ea578063bcd90c9914610108578063d029661214610124578063e27bb1f7146101555761007d565b8063263c1b7c14610082578063799892641461009e5780638955895f146100ce575b600080fd5b61009c60048036038101906100979190611916565b610171565b005b6100b860048036038101906100b39190611869565b61050d565b6040516100c59190611ddb565b60405180910390f35b6100e860048036038101906100e39190611869565b6109c0565b005b6100f2610bc9565b6040516100ff9190611dc0565b60405180910390f35b610122600480360381019061011d91906118aa565b610bed565b005b61013e60048036038101906101399190611869565b610d5b565b60405161014c929190611dfd565b60405180910390f35b61016f600480360381019061016a91906118aa565b6113d9565b005b60008054906101000a900473ffffffffffffffffffffffffffffffffffffffff1673ffffffffffffffffffffffffffffffffffffffff163373ffffffffffffffffffffffffffffffffffffffff16146101ff576040517f08c379a00000000000000000000000000000000000000000000000000000000081526004016101f690611edc565b60405180910390fd5b600086511161020d57600080fd5b600084511161021b57600080fd5b600082511161022957600080fd5b600083511161023757600080fd5b600073ffffffffffffffffffffffffffffffffffffffff163373ffffffffffffffffffffffffffffffffffffffff16141561027157600080fd5b6000851161027e57600080fd5b60046000815480929190610291906120e3565b919050555060006005886040516102a89190611d92565b90815260200160405180910390209050878160000190805190602001906102d0929190611544565b50868160010190805190602001906102e9929190611544565b508581600201819055508481600301908051906020019061030b929190611544565b5083816004019080519060200190610324929190611544565b508281600501908051906020019061033d929190611544565b504281600601819055508181600701908051906020019061035f929190611544565b506002826040516103709190611d92565b90815260200160405180910390206002016005896040516103919190611d92565b9081526020016040518091039020908060018154018082558091505060019003906000526020600020906008020160009091909190915060008201816000019080546103dc90612080565b6103e79291906115ca565b5060018201816001019080546103fc90612080565b6104079291906115ca565b5060028201548160020155600382018160030190805461042690612080565b6104319291906115ca565b50600482018160040190805461044690612080565b6104519291906115ca565b50600582018160050190805461046690612080565b6104719291906115ca565b5060068201548160060155600782018160070190805461049090612080565b61049b9291906115ca565b5050507fd5d6fd9cf8a3670e221ab164e08279f4b8ec13e6b11a5eb198c76ba6c093eac08888888888884260028a6040516104d69190611d92565b90815260200160405180910390206001016040516104fb989796959493929190611e34565b60405180910390a15050505050505050565b606060006003836040516105219190611d92565b9081526020016040518091039020805461053a90612080565b80601f016020809104026020016040519081016040528092919081815260200182805461056690612080565b80156105b35780601f10610588576101008083540402835291602001916105b3565b820191906000526020600020905b81548152906001019060200180831161059657829003601f168201915b5050505050905060006002826040516105cc9190611d92565b9081526020016040518091039020905080600201805480602002602001604051908101604052809291908181526020016000905b828210156109b357838290600052602060002090600802016040518061010001604052908160008201805461063490612080565b80601f016020809104026020016040519081016040528092919081815260200182805461066090612080565b80156106ad5780601f10610682576101008083540402835291602001916106ad565b820191906000526020600020905b81548152906001019060200180831161069057829003601f168201915b505050505081526020016001820180546106c690612080565b80601f01602080910402602001604051908101604052809291908181526020018280546106f290612080565b801561073f5780601f106107145761010080835404028352916020019161073f565b820191906000526020600020905b81548152906001019060200180831161072257829003601f168201915b505050505081526020016002820154815260200160038201805461076290612080565b80601f016020809104026020016040519081016040528092919081815260200182805461078e90612080565b80156107db5780601f106107b0576101008083540402835291602001916107db565b820191906000526020600020905b8154815290600101906020018083116107be57829003601f168201915b505050505081526020016004820180546107f490612080565b80601f016020809104026020016040519081016040528092919081815260200182805461082090612080565b801561086d5780601f106108425761010080835404028352916020019161086d565b820191906000526020600020905b81548152906001019060200180831161085057829003601f168201915b5050505050815260200160058201805461088690612080565b80601f01602080910402602001604051908101604052809291908181526020018280546108b290612080565b80156108ff5780601f106108d4576101008083540402835291602001916108ff565b820191906000526020600020905b8154815290600101906020018083116108e257829003601f168201915b505050505081526020016006820154815260200160078201805461092290612080565b80601f016020809104026020016040519081016040528092919081815260200182805461094e90612080565b801561099b5780601f106109705761010080835404028352916020019161099b565b820191906000526020600020905b81548152906001019060200180831161097e57829003601f168201915b50505050508152505081526020019060010190610600565b5050505092505050919050565b60008054906101000a900473ffffffffffffffffffffffffffffffffffffffff1673ffffffffffffffffffffffffffffffffffffffff163373ffffffffffffffffffffffffffffffffffffffff1614610a4e576040517f08c379a0000000000000000000000000000000000000000000000000000000008152600401610a4590611edc565b60405180910390fd5b6000600382604051610a609190611d92565b90815260200160405180910390208054610a7990612080565b80601f0160208091040260200160405190810160405280929190818152602001828054610aa590612080565b8015610af25780601f10610ac757610100808354040283529160200191610af2565b820191906000526020600020905b815481529060010190602001808311610ad557829003601f168201915b50505050509050600382604051610b099190611d92565b90815260200160405180910390206000610b239190611657565b600281604051610b339190611d92565b908152602001604051809103902060008082016000610b529190611657565b600182016000610b629190611657565b600282016000610b729190611697565b505060016000815480929190610b8790612056565b91905055507f9808d4fbb93a28c4b0167f8ceefaa91e05e4a5e79afa263469e7dbb85289d0808183604051610bbd929190611dfd565b60405180910390a15050565b60008054906101000a900473ffffffffffffffffffffffffffffffffffffffff1681565b60008054906101000a900473ffffffffffffffffffffffffffffffffffffffff1673ffffffffffffffffffffffffffffffffffffffff163373ffffffffffffffffffffffffffffffffffffffff1614610c7b576040517f08c379a0000000000000000000000000000000000000000000000000000000008152600401610c7290611edc565b60405180910390fd5b6000600283604051610c8d9190611d92565b90815260200160405180910390209050600381600101604051610cb09190611da9565b90815260200160405180910390206000610cca9190611657565b80600001600383604051610cde9190611d92565b9081526020016040518091039020908054610cf890612080565b610d039291906116bb565b5081816001019080519060200190610d1c929190611544565b507f0df45492165d3cbdc7a283c4d28a1a18b3d88c9eb0091123f02380edbc0526128383604051610d4e929190611dfd565b60405180910390a1505050565b60608060008054906101000a900473ffffffffffffffffffffffffffffffffffffffff1673ffffffffffffffffffffffffffffffffffffffff163373ffffffffffffffffffffffffffffffffffffffff1614610dec576040517f08c379a0000000000000000000000000000000000000000000000000000000008152600401610de390611edc565b60405180910390fd5b6000600384604051610dfe9190611d92565b90815260200160405180910390208054610e1790612080565b80601f0160208091040260200160405190810160405280929190818152602001828054610e4390612080565b8015610e905780601f10610e6557610100808354040283529160200191610e90565b820191906000526020600020905b815481529060010190602001808311610e7357829003601f168201915b505050505090506000600282604051610ea99190611d92565b9081526020016040518091039020604051806060016040529081600082018054610ed290612080565b80601f0160208091040260200160405190810160405280929190818152602001828054610efe90612080565b8015610f4b5780601f10610f2057610100808354040283529160200191610f4b565b820191906000526020600020905b815481529060010190602001808311610f2e57829003601f168201915b50505050508152602001600182018054610f6490612080565b80601f0160208091040260200160405190810160405280929190818152602001828054610f9090612080565b8015610fdd5780601f10610fb257610100808354040283529160200191610fdd565b820191906000526020600020905b815481529060010190602001808311610fc057829003601f168201915b5050505050815260200160028201805480602002602001604051908101604052809291908181526020016000905b828210156113be57838290600052602060002090600802016040518061010001604052908160008201805461103f90612080565b80601f016020809104026020016040519081016040528092919081815260200182805461106b90612080565b80156110b85780601f1061108d576101008083540402835291602001916110b8565b820191906000526020600020905b81548152906001019060200180831161109b57829003601f168201915b505050505081526020016001820180546110d190612080565b80601f01602080910402602001604051908101604052809291908181526020018280546110fd90612080565b801561114a5780601f1061111f5761010080835404028352916020019161114a565b820191906000526020600020905b81548152906001019060200180831161112d57829003601f168201915b505050505081526020016002820154815260200160038201805461116d90612080565b80601f016020809104026020016040519081016040528092919081815260200182805461119990612080565b80156111e65780601f106111bb576101008083540402835291602001916111e6565b820191906000526020600020905b8154815290600101906020018083116111c957829003601f168201915b505050505081526020016004820180546111ff90612080565b80601f016020809104026020016040519081016040528092919081815260200182805461122b90612080565b80156112785780601f1061124d57610100808354040283529160200191611278565b820191906000526020600020905b81548152906001019060200180831161125b57829003601f168201915b5050505050815260200160058201805461129190612080565b80601f01602080910402602001604051908101604052809291908181526020018280546112bd90612080565b801561130a5780601f106112df5761010080835404028352916020019161130a565b820191906000526020600020905b8154815290600101906020018083116112ed57829003601f168201915b505050505081526020016006820154815260200160078201805461132d90612080565b80601f016020809104026020016040519081016040528092919081815260200182805461135990612080565b80156113a65780601f1061137b576101008083540402835291602001916113a6565b820191906000526020600020905b81548152906001019060200180831161138957829003601f168201915b5050505050815250508152602001906001019061100b565b50505050815250509050818160200151935093505050915091565b60008054906101000a900473ffffffffffffffffffffffffffffffffffffffff1673ffffffffffffffffffffffffffffffffffffffff163373ffffffffffffffffffffffffffffffffffffffff1614611467576040517f08c379a000000000000000000000000000000000000000000000000000000000815260040161145e90611edc565b60405180910390fd5b60006002836040516114799190611d92565b908152602001604051809103902090508260038360405161149a9190611d92565b908152602001604051809103902090805190602001906114bb929190611544565b50600160008154809291906114cf906120e3565b9190505550828160000190805190602001906114ec929190611544565b5081816001019080519060200190611505929190611544565b507ffa51d6f3e231107daaa80215be0fbad1e174715e2fbbc3b9fd6e76141ad4df088383604051611537929190611dfd565b60405180910390a1505050565b82805461155090612080565b90600052602060002090601f01602090048101928261157257600085556115b9565b82601f1061158b57805160ff19168380011785556115b9565b828001600101855582156115b9579182015b828111156115b857825182559160200191906001019061159d565b5b5090506115c69190611748565b5090565b8280546115d690612080565b90600052602060002090601f0160209004810192826115f85760008555611646565b82601f106116095780548555611646565b8280016001018555821561164657600052602060002091601f016020900482015b8281111561164557825482559160010191906001019061162a565b5b5090506116539190611748565b5090565b50805461166390612080565b6000825580601f106116755750611694565b601f0160209004906000526020600020908101906116939190611748565b5b50565b50805460008255600802906000526020600020908101906116b89190611765565b50565b8280546116c790612080565b90600052602060002090601f0160209004810192826116e95760008555611737565b82601f106116fa5780548555611737565b8280016001018555821561173757600052602060002091601f016020900482015b8281111561173657825482559160010191906001019061171b565b5b5090506117449190611748565b5090565b5b80821115611761576000816000905550600101611749565b5090565b5b808211156117e8576000808201600061177f9190611657565b60018201600061178f9190611657565b60028201600090556003820160006117a79190611657565b6004820160006117b79190611657565b6005820160006117c79190611657565b60068201600090556007820160006117df9190611657565b50600801611766565b5090565b60006117ff6117fa84611f21565b611efc565b90508281526020810184848401111561181757600080fd5b611822848285612014565b509392505050565b600082601f83011261183b57600080fd5b813561184b8482602086016117ec565b91505092915050565b600081359050611863816121f3565b92915050565b60006020828403121561187b57600080fd5b600082013567ffffffffffffffff81111561189557600080fd5b6118a18482850161182a565b91505092915050565b600080604083850312156118bd57600080fd5b600083013567ffffffffffffffff8111156118d757600080fd5b6118e38582860161182a565b925050602083013567ffffffffffffffff81111561190057600080fd5b61190c8582860161182a565b9150509250929050565b600080600080600080600060e0888a03121561193157600080fd5b600088013567ffffffffffffffff81111561194b57600080fd5b6119578a828b0161182a565b975050602088013567ffffffffffffffff81111561197457600080fd5b6119808a828b0161182a565b96505060406119918a828b01611854565b955050606088013567ffffffffffffffff8111156119ae57600080fd5b6119ba8a828b0161182a565b945050608088013567ffffffffffffffff8111156119d757600080fd5b6119e38a828b0161182a565b93505060a088013567ffffffffffffffff811115611a0057600080fd5b611a0c8a828b0161182a565b92505060c088013567ffffffffffffffff811115611a2957600080fd5b611a358a828b0161182a565b91505092959891949750929550565b6000611a508383611ca1565b905092915050565b611a6181611fd8565b82525050565b6000611a7282611f77565b611a7c8185611f9a565b935083602082028501611a8e85611f52565b8060005b85811015611aca5784840389528151611aab8582611a44565b9450611ab683611f8d565b925060208a01995050600181019050611a92565b50829750879550505050505092915050565b6000611ae782611f82565b611af18185611fab565b9350611b01818560208601612023565b611b0a816121b9565b840191505092915050565b6000611b2082611f82565b611b2a8185611fbc565b9350611b3a818560208601612023565b611b43816121b9565b840191505092915050565b6000611b5982611f82565b611b638185611fcd565b9350611b73818560208601612023565b80840191505092915050565b60008154611b8c81612080565b611b968186611fbc565b94506001821660008114611bb15760018114611bc357611bf6565b60ff1983168652602086019350611bf6565b611bcc85611f62565b60005b83811015611bee57815481890152600182019150602081019050611bcf565b808801955050505b50505092915050565b60008154611c0c81612080565b611c168186611fcd565b94506001821660008114611c315760018114611c4257611c75565b60ff19831686528186019350611c75565b611c4b85611f62565b60005b83811015611c6d57815481890152600182019150602081019050611c4e565b838801955050505b50505092915050565b6000611c8b601583611fbc565b9150611c96826121ca565b602082019050919050565b6000610100830160008301518482036000860152611cbf8282611adc565b91505060208301518482036020860152611cd98282611adc565b9150506040830151611cee6040860182611d74565b5060608301518482036060860152611d068282611adc565b91505060808301518482036080860152611d208282611adc565b91505060a083015184820360a0860152611d3a8282611adc565b91505060c0830151611d4f60c0860182611d74565b5060e083015184820360e0860152611d678282611adc565b9150508091505092915050565b611d7d8161200a565b82525050565b611d8c8161200a565b82525050565b6000611d9e8284611b4e565b915081905092915050565b6000611db58284611bff565b915081905092915050565b6000602082019050611dd56000830184611a58565b92915050565b60006020820190508181036000830152611df58184611a67565b905092915050565b60006040820190508181036000830152611e178185611b15565b90508181036020830152611e2b8184611b15565b90509392505050565b6000610100820190508181036000830152611e4f818b611b15565b90508181036020830152611e63818a611b15565b9050611e726040830189611d83565b8181036060830152611e848188611b15565b90508181036080830152611e988187611b15565b905081810360a0830152611eac8186611b15565b9050611ebb60c0830185611d83565b81810360e0830152611ecd8184611b7f565b90509998505050505050505050565b60006020820190508181036000830152611ef581611c7e565b9050919050565b6000611f06611f17565b9050611f1282826120b2565b919050565b6000604051905090565b600067ffffffffffffffff821115611f3c57611f3b61218a565b5b611f45826121b9565b9050602081019050919050565b6000819050602082019050919050565b60008190508160005260206000209050919050565b600081519050919050565b600081519050919050565b6000602082019050919050565b600082825260208201905092915050565b600082825260208201905092915050565b600082825260208201905092915050565b600081905092915050565b6000611fe382611fea565b9050919050565b600073ffffffffffffffffffffffffffffffffffffffff82169050919050565b6000819050919050565b82818337600083830152505050565b60005b83811015612041578082015181840152602081019050612026565b83811115612050576000848401525b50505050565b60006120618261200a565b915060008214156120755761207461212c565b5b600182039050919050565b6000600282049050600182168061209857607f821691505b602082108114156120ac576120ab61215b565b5b50919050565b6120bb826121b9565b810181811067ffffffffffffffff821117156120da576120d961218a565b5b80604052505050565b60006120ee8261200a565b91507fffffffffffffffffffffffffffffffffffffffffffffffffffffffffffffffff8214156121215761212061212c565b5b600182019050919050565b7f4e487b7100000000000000000000000000000000000000000000000000000000600052601160045260246000fd5b7f4e487b7100000000000000000000000000000000000000000000000000000000600052602260045260246000fd5b7f4e487b7100000000000000000000000000000000000000000000000000000000600052604160045260246000fd5b6000601f19601f8301169050919050565b7f4f6e6c79206f776e65722063616e206163636573730000000000000000000000600082015250565b6121fc8161200a565b811461220757600080fd5b5056fea264697066735822122056bb46027554b51b15b0c44ad7d857ff740a832a8a224f7d06fd7c5b44dd677064736f6c63430008030033",
  "immutableReferences": {},
  "source": "// SPDX-License-Identifier: UNLICENSED\r\npragma solidity >=0.7.0 <0.9.0;\r\npragma experimental ABIEncoderV2;\r\n\r\ncontract MyContract {\r\n    address public owner = msg.sender;\r\n\r\n    modifier onlyOwner() {\r\n        require(msg.sender == owner, \"Only owner can access\");\r\n        _;\r\n    }\r\n\r\n    struct Student {\r\n        string id;\r\n        string studentNo;\r\n        File[] studentFiles;\r\n        /*\r\n        *\r\n        * This struct includes id, studentNo,studentFiles...\r\n        *\r\n        */\r\n    }\r\n\r\n    struct File {\r\n        string id;\r\n        string fileHash;\r\n        uint256 fileSize;\r\n        string fileType;\r\n        string fileName;\r\n        string fileDescription;\r\n        uint256 uploadTime;\r\n        string studentId;\r\n    }\r\n\r\n    uint256 private studentCount;\r\n    mapping(string => Student) private students;\r\n    mapping(string => string) private studentsNoToId;\r\n\r\n    uint256 private fileCount;\r\n    mapping(string => File) private files;\r\n\r\n    event addStudentEvent(string id, string studentNo);\r\n    event deleteStudentEvent(string id, string studentNo);\r\n    event updateStudentEvent(string id, string studentNo);\r\n    event FileUploaded(\r\n        string fileId,\r\n        string fileHash,\r\n        uint256 fileSize,\r\n        string fileType,\r\n        string fileName,\r\n        string fileDescription,\r\n        uint256 uploadTime,\r\n        string studentNo\r\n    );\r\n\r\n    function getStudent(string memory _studentNo) public view onlyOwner returns(string memory,string memory){\r\n        string memory _id = studentsNoToId[_studentNo];\r\n        Student memory student = students[_id];\r\n        return (_id,student.studentNo);\r\n        \r\n    }\r\n\r\n    function addStudent(string memory _id, string memory _studentNo)\r\n        public\r\n        onlyOwner\r\n    {\r\n        Student storage newStudent = students[_id];\r\n        studentsNoToId[_studentNo] = _id;\r\n        studentCount++;\r\n        newStudent.id = _id;\r\n        newStudent.studentNo = _studentNo;\r\n        emit addStudentEvent(_id, _studentNo);\r\n    }\r\n\r\n    function deleteStudent(string memory _studentNo) public onlyOwner {\r\n        string memory _id = studentsNoToId[_studentNo];\r\n        delete studentsNoToId[_studentNo];\r\n        delete students[_id];\r\n        studentCount--;\r\n        emit deleteStudentEvent(_id, _studentNo);\r\n    }\r\n\r\n    function updateStudent(string memory _id, string memory _studentNo)\r\n        public\r\n        onlyOwner\r\n    {\r\n        Student storage student = students[_id];\r\n        delete studentsNoToId[student.studentNo];\r\n        studentsNoToId[_studentNo] = student.id;\r\n        student.studentNo = _studentNo;\r\n        emit updateStudentEvent(_id, _studentNo);\r\n    }\r\n\r\n    function uploadFile(\r\n        string memory _id,\r\n        string memory _fileHash,\r\n        uint256 _fileSize,\r\n        string memory _fileType,\r\n        string memory _fileName,\r\n        string memory _fileDescription,\r\n        string memory _studentId\r\n    ) public onlyOwner {\r\n        // Example files[1] = File(1, _fileHash, _fileSize, _fileType, _fileName, _fileDescription, now, msg.sender); // now=timestamp\r\n\r\n        // Make sure the file hash exists\r\n        require(bytes(_fileHash).length > 0);\r\n        // Make sure file type exists\r\n        require(bytes(_fileType).length > 0);\r\n        // Make sure file description exists\r\n        require(bytes(_fileDescription).length > 0);\r\n        // Make sure file fileName exists\r\n        require(bytes(_fileName).length > 0);\r\n        // Make sure uploader address exists\r\n        require(msg.sender != address(0));\r\n        // Make sure file size is more than 0\r\n        require(_fileSize > 0);\r\n\r\n        // Increment file id\r\n        fileCount++;\r\n\r\n        // Add File to the contract\r\n        File storage newFile = files[_id];\r\n        newFile.id = _id;\r\n        newFile.fileHash = _fileHash;\r\n        newFile.fileSize = _fileSize;\r\n        newFile.fileType = _fileType;\r\n        newFile.fileName = _fileName;\r\n        newFile.fileDescription = _fileDescription;\r\n        newFile.uploadTime = block.timestamp;\r\n        newFile.studentId = _studentId;\r\n\r\n        students[_studentId].studentFiles.push(files[_id]);\r\n\r\n        // Trigger an event\r\n        emit FileUploaded(\r\n            _id,\r\n            _fileHash,\r\n            _fileSize,\r\n            _fileType,\r\n            _fileName,\r\n            _fileDescription,\r\n            block.timestamp,\r\n            students[_studentId].studentNo\r\n        );\r\n    }\r\n\r\n    function getFilesOfStudent(string memory studentNo)\r\n        public\r\n        view\r\n        returns (File[] memory)\r\n    {\r\n        string memory id = studentsNoToId[studentNo];\r\n        Student storage student = students[id];\r\n        return student.studentFiles;\r\n    }\r\n}\r\n",
  "sourcePath": "/home/msk/Desktop/deneme/contracts/MyContract.sol",
  "compiler": {
    "name": "solc",
    "version": "0.8.3+commit.8d00100c.Emscripten.clang"
  },
  "schemaVersion": "3.3.4",
  "updatedAt": "2021-04-19T12:07:33.389Z",
  "networkType": "ethereum",
  "devdoc": {
    "kind": "dev",
    "methods": {},
    "version": 1
  },
  "userdoc": {
    "kind": "user",
    "methods": {},
    "version": 1
  }
}