{
  "contractName": "Sample",
  "abi": [
    {
      "inputs": [],
      "name": "owner",
      "outputs": [
        {
          "internalType": "address",
          "name": "",
          "type": "address"
        }
      ],
      "stateMutability": "view",
      "type": "function",
      "constant": true
    },
    {
      "inputs": [
        {
          "internalType": "int256",
          "name": "_a",
          "type": "int256"
        },
        {
          "internalType": "int256",
          "name": "_b",
          "type": "int256"
        }
      ],
      "name": "Sum",
      "outputs": [],
      "stateMutability": "nonpayable",
      "type": "function"
    },
    {
      "inputs": [],
      "name": "getSum",
      "outputs": [
        {
          "internalType": "int256",
          "name": "",
          "type": "int256"
        }
      ],
      "stateMutability": "view",
      "type": "function",
      "constant": true
    }
  ],
  "bytecode": "0x6080604052336000806101000a81548173ffffffffffffffffffffffffffffffffffffffff021916908373ffffffffffffffffffffffffffffffffffffffff16021790555034801561005057600080fd5b50610404806100606000396000f3fe608060405234801561001057600080fd5b50600436106100415760003560e01c8063569c5f6d146100465780638da5cb5b14610064578063eb638f1214610082575b600080fd5b61004e61009e565b60405161005b919061021d565b60405180910390f35b61006c6100a8565b6040516100799190610202565b60405180910390f35b61009c60048036038101906100979190610185565b6100cc565b005b6000600154905090565b60008054906101000a900473ffffffffffffffffffffffffffffffffffffffff1681565b60008054906101000a900473ffffffffffffffffffffffffffffffffffffffff1673ffffffffffffffffffffffffffffffffffffffff163373ffffffffffffffffffffffffffffffffffffffff161461015a576040517f08c379a000000000000000000000000000000000000000000000000000000000815260040161015190610238565b60405180910390fd5b80826101669190610269565b6001819055505050565b60008135905061017f816103b7565b92915050565b6000806040838503121561019857600080fd5b60006101a685828601610170565b92505060206101b785828601610170565b9150509250929050565b6101ca816102fd565b82525050565b6101d98161030f565b82525050565b60006101ec603383610258565b91506101f782610368565b604082019050919050565b600060208201905061021760008301846101c1565b92915050565b600060208201905061023260008301846101d0565b92915050565b60006020820190508181036000830152610251816101df565b9050919050565b600082825260208201905092915050565b60006102748261030f565b915061027f8361030f565b9250817f7fffffffffffffffffffffffffffffffffffffffffffffffffffffffffffffff038313600083121516156102ba576102b9610339565b5b817f80000000000000000000000000000000000000000000000000000000000000000383126000831216156102f2576102f1610339565b5b828201905092915050565b600061030882610319565b9050919050565b6000819050919050565b600073ffffffffffffffffffffffffffffffffffffffff82169050919050565b7f4e487b7100000000000000000000000000000000000000000000000000000000600052601160045260246000fd5b7f546869732066756e6374696f6e206973207265737472696374656420746f207460008201527f686520636f6e74726163742773206f776e657200000000000000000000000000602082015250565b6103c08161030f565b81146103cb57600080fd5b5056fea26469706673582212209c2d6252eb7a5012ae883c51f39320d60d88a35e240a6a7a30dd15cfdbae8ce264736f6c63430008030033",
  "immutableReferences": {},
  "source": "// SPDX-License-Identifier: UNLICENSED\npragma solidity ^0.8.3;\n\ncontract Sample{\n      address public owner = msg.sender;\n\n    int sum;\n\n  modifier restricted() {\n    require(\n      msg.sender == owner,\n      \"This function is restricted to the contract's owner\"\n    );\n    _;\n  }\n\n\n    function Sum(int _a,int _b) public restricted{\n        sum = _a + _b;\n    }\n    function getSum() public view returns(int){\n        return sum;\n    }\n}",
  "sourcePath": "/home/msk/Downloads/Project/Express/contract/Truffle/contracts/Sample.sol",
  "compiler": {
    "name": "solc",
    "version": "0.8.3+commit.8d00100c.Emscripten.clang"
  },
  "schemaVersion": "3.3.4",
  "updatedAt": "2021-04-04T09:17:49.499Z",
  "networkType": "ethereum",
  "devdoc": {
    "kind": "dev",
    "methods": {},
    "version": 1
  },
  "userdoc": {
    "kind": "user",
    "methods": {},
    "version": 1
  }
}