{
  "contractName": "MyContract",
  "abi": [
    {
      "anonymous": false,
      "inputs": [
        {
          "indexed": false,
          "internalType": "string",
          "name": "fileId",
          "type": "string"
        },
        {
          "indexed": false,
          "internalType": "string",
          "name": "fileHash",
          "type": "string"
        },
        {
          "indexed": false,
          "internalType": "uint256",
          "name": "fileSize",
          "type": "uint256"
        },
        {
          "indexed": false,
          "internalType": "string",
          "name": "fileType",
          "type": "string"
        },
        {
          "indexed": false,
          "internalType": "string",
          "name": "fileName",
          "type": "string"
        },
        {
          "indexed": false,
          "internalType": "string",
          "name": "fileDescription",
          "type": "string"
        },
        {
          "indexed": false,
          "internalType": "uint256",
          "name": "uploadTime",
          "type": "uint256"
        },
        {
          "indexed": false,
          "internalType": "string",
          "name": "studentNo",
          "type": "string"
        }
      ],
      "name": "FileUploaded",
      "type": "event"
    },
    {
      "anonymous": false,
      "inputs": [
        {
          "indexed": false,
          "internalType": "string",
          "name": "id",
          "type": "string"
        },
        {
          "indexed": false,
          "internalType": "string",
          "name": "studentNo",
          "type": "string"
        }
      ],
      "name": "addStudentEvent",
      "type": "event"
    },
    {
      "anonymous": false,
      "inputs": [
        {
          "indexed": false,
          "internalType": "string",
          "name": "id",
          "type": "string"
        },
        {
          "indexed": false,
          "internalType": "string",
          "name": "studentNo",
          "type": "string"
        }
      ],
      "name": "deleteStudentEvent",
      "type": "event"
    },
    {
      "anonymous": false,
      "inputs": [
        {
          "indexed": false,
          "internalType": "string",
          "name": "id",
          "type": "string"
        },
        {
          "indexed": false,
          "internalType": "string",
          "name": "studentNo",
          "type": "string"
        }
      ],
      "name": "updateStudentEvent",
      "type": "event"
    },
    {
      "inputs": [],
      "name": "owner",
      "outputs": [
        {
          "internalType": "address",
          "name": "",
          "type": "address"
        }
      ],
      "stateMutability": "view",
      "type": "function",
      "constant": true
    },
    {
      "inputs": [
        {
          "internalType": "string",
          "name": "_studentNo",
          "type": "string"
        }
      ],
      "name": "getStudent",
      "outputs": [
        {
          "internalType": "string",
          "name": "",
          "type": "string"
        },
        {
          "internalType": "string",
          "name": "",
          "type": "string"
        }
      ],
      "stateMutability": "view",
      "type": "function",
      "constant": true
    },
    {
      "inputs": [
        {
          "internalType": "string",
          "name": "_id",
          "type": "string"
        },
        {
          "internalType": "string",
          "name": "_studentNo",
          "type": "string"
        }
      ],
      "name": "addStudent",
      "outputs": [],
      "stateMutability": "nonpayable",
      "type": "function"
    },
    {
      "inputs": [
        {
          "internalType": "string",
          "name": "_studentNo",
          "type": "string"
        },
        {
          "internalType": "uint256",
          "name": "assetIndex",
          "type": "uint256"
        }
      ],
      "name": "deleteStudent",
      "outputs": [],
      "stateMutability": "nonpayable",
      "type": "function"
    },
    {
      "inputs": [
        {
          "internalType": "string",
          "name": "_id",
          "type": "string"
        },
        {
          "internalType": "string",
          "name": "_studentNo",
          "type": "string"
        }
      ],
      "name": "updateStudent",
      "outputs": [],
      "stateMutability": "nonpayable",
      "type": "function"
    },
    {
      "inputs": [
        {
          "internalType": "string",
          "name": "_id",
          "type": "string"
        },
        {
          "internalType": "string",
          "name": "_fileHash",
          "type": "string"
        },
        {
          "internalType": "uint256",
          "name": "_fileSize",
          "type": "uint256"
        },
        {
          "internalType": "string",
          "name": "_fileType",
          "type": "string"
        },
        {
          "internalType": "string",
          "name": "_fileName",
          "type": "string"
        },
        {
          "internalType": "string",
          "name": "_fileDescription",
          "type": "string"
        },
        {
          "internalType": "string",
          "name": "_studentId",
          "type": "string"
        }
      ],
      "name": "uploadFile",
      "outputs": [],
      "stateMutability": "nonpayable",
      "type": "function"
    },
    {
      "inputs": [
        {
          "internalType": "string",
          "name": "studentNo",
          "type": "string"
        }
      ],
      "name": "getFilesOfStudent",
      "outputs": [
        {
          "components": [
            {
              "internalType": "string",
              "name": "id",
              "type": "string"
            },
            {
              "internalType": "string",
              "name": "fileHash",
              "type": "string"
            },
            {
              "internalType": "uint256",
              "name": "fileSize",
              "type": "uint256"
            },
            {
              "internalType": "string",
              "name": "fileType",
              "type": "string"
            },
            {
              "internalType": "string",
              "name": "fileName",
              "type": "string"
            },
            {
              "internalType": "string",
              "name": "fileDescription",
              "type": "string"
            },
            {
              "internalType": "uint256",
              "name": "uploadTime",
              "type": "uint256"
            },
            {
              "internalType": "string",
              "name": "studentId",
              "type": "string"
            }
          ],
          "internalType": "struct MyContract.File[]",
          "name": "",
          "type": "tuple[]"
        }
      ],
      "stateMutability": "view",
      "type": "function",
      "constant": true
    },
    {
      "inputs": [],
      "name": "getAllStudent",
      "outputs": [
        {
          "components": [
            {
              "internalType": "string",
              "name": "id",
              "type": "string"
            },
            {
              "internalType": "string",
              "name": "studentNo",
              "type": "string"
            },
            {
              "components": [
                {
                  "internalType": "string",
                  "name": "id",
                  "type": "string"
                },
                {
                  "internalType": "string",
                  "name": "fileHash",
                  "type": "string"
                },
                {
                  "internalType": "uint256",
                  "name": "fileSize",
                  "type": "uint256"
                },
                {
                  "internalType": "string",
                  "name": "fileType",
                  "type": "string"
                },
                {
                  "internalType": "string",
                  "name": "fileName",
                  "type": "string"
                },
                {
                  "internalType": "string",
                  "name": "fileDescription",
                  "type": "string"
                },
                {
                  "internalType": "uint256",
                  "name": "uploadTime",
                  "type": "uint256"
                },
                {
                  "internalType": "string",
                  "name": "studentId",
                  "type": "string"
                }
              ],
              "internalType": "struct MyContract.File[]",
              "name": "studentFiles",
              "type": "tuple[]"
            }
          ],
          "internalType": "struct MyContract.Student[]",
          "name": "",
          "type": "tuple[]"
        }
      ],
      "stateMutability": "view",
      "type": "function",
      "constant": true
    }
  ],
  "bytecode": "0x6080604052336000806101000a81548173ffffffffffffffffffffffffffffffffffffffff021916908373ffffffffffffffffffffffffffffffffffffffff16021790555034801561005057600080fd5b50612c25806100606000396000f3fe608060405234801561001057600080fd5b50600436106100885760003560e01c80639b98e33d1161005b5780639b98e33d14610115578063bcd90c9914610131578063d02966121461014d578063e27bb1f71461017e57610088565b8063133d04601461008d578063263c1b7c146100ab57806379989264146100c75780638da5cb5b146100f7575b600080fd5b61009561019a565b6040516100a29190612776565b60405180910390f35b6100c560048036038101906100c091906120df565b61088c565b005b6100e160048036038101906100dc9190612032565b610c28565b6040516100ee9190612754565b60405180910390f35b6100ff6110db565b60405161010c9190612739565b60405180910390f35b61012f600480360381019061012a919061220d565b6110ff565b005b61014b60048036038101906101469190612073565b611359565b005b61016760048036038101906101629190612032565b6114c7565b604051610175929190612798565b60405180910390f35b61019860048036038101906101939190612073565b611b45565b005b606060008054906101000a900473ffffffffffffffffffffffffffffffffffffffff1673ffffffffffffffffffffffffffffffffffffffff163373ffffffffffffffffffffffffffffffffffffffff161461022a576040517f08c379a000000000000000000000000000000000000000000000000000000000815260040161022190612877565b60405180910390fd5b600060025467ffffffffffffffff81111561026e577f4e487b7100000000000000000000000000000000000000000000000000000000600052604160045260246000fd5b6040519080825280602002602001820160405280156102a757816020015b610294611cec565b81526020019060019003908161028c5790505b50905060005b6002548110156108845760006003600183815481106102f5577f4e487b7100000000000000000000000000000000000000000000000000000000600052603260045260246000fd5b9060005260206000200160405161030c9190612722565b908152602001604051809103902090508060405180606001604052908160008201805461033890612a65565b80601f016020809104026020016040519081016040528092919081815260200182805461036490612a65565b80156103b15780601f10610386576101008083540402835291602001916103b1565b820191906000526020600020905b81548152906001019060200180831161039457829003601f168201915b505050505081526020016001820180546103ca90612a65565b80601f01602080910402602001604051908101604052809291908181526020018280546103f690612a65565b80156104435780601f1061041857610100808354040283529160200191610443565b820191906000526020600020905b81548152906001019060200180831161042657829003601f168201915b5050505050815260200160028201805480602002602001604051908101604052809291908181526020016000905b828210156108245783829060005260206000209060080201604051806101000160405290816000820180546104a590612a65565b80601f01602080910402602001604051908101604052809291908181526020018280546104d190612a65565b801561051e5780601f106104f35761010080835404028352916020019161051e565b820191906000526020600020905b81548152906001019060200180831161050157829003601f168201915b5050505050815260200160018201805461053790612a65565b80601f016020809104026020016040519081016040528092919081815260200182805461056390612a65565b80156105b05780601f10610585576101008083540402835291602001916105b0565b820191906000526020600020905b81548152906001019060200180831161059357829003601f168201915b50505050508152602001600282015481526020016003820180546105d390612a65565b80601f01602080910402602001604051908101604052809291908181526020018280546105ff90612a65565b801561064c5780601f106106215761010080835404028352916020019161064c565b820191906000526020600020905b81548152906001019060200180831161062f57829003601f168201915b5050505050815260200160048201805461066590612a65565b80601f016020809104026020016040519081016040528092919081815260200182805461069190612a65565b80156106de5780601f106106b3576101008083540402835291602001916106de565b820191906000526020600020905b8154815290600101906020018083116106c157829003601f168201915b505050505081526020016005820180546106f790612a65565b80601f016020809104026020016040519081016040528092919081815260200182805461072390612a65565b80156107705780601f1061074557610100808354040283529160200191610770565b820191906000526020600020905b81548152906001019060200180831161075357829003601f168201915b505050505081526020016006820154815260200160078201805461079390612a65565b80601f01602080910402602001604051908101604052809291908181526020018280546107bf90612a65565b801561080c5780601f106107e15761010080835404028352916020019161080c565b820191906000526020600020905b8154815290600101906020018083116107ef57829003601f168201915b50505050508152505081526020019060010190610471565b5050505081525050838381518110610865577f4e487b7100000000000000000000000000000000000000000000000000000000600052603260045260246000fd5b602002602001018190525050808061087c90612ac8565b9150506102ad565b508091505090565b60008054906101000a900473ffffffffffffffffffffffffffffffffffffffff1673ffffffffffffffffffffffffffffffffffffffff163373ffffffffffffffffffffffffffffffffffffffff161461091a576040517f08c379a000000000000000000000000000000000000000000000000000000000815260040161091190612877565b60405180910390fd5b600086511161092857600080fd5b600084511161093657600080fd5b600082511161094457600080fd5b600083511161095257600080fd5b600073ffffffffffffffffffffffffffffffffffffffff163373ffffffffffffffffffffffffffffffffffffffff16141561098c57600080fd5b6000851161099957600080fd5b600560008154809291906109ac90612ac8565b919050555060006006886040516109c3919061270b565b90815260200160405180910390209050878160000190805190602001906109eb929190611d0d565b5086816001019080519060200190610a04929190611d0d565b5085816002018190555084816003019080519060200190610a26929190611d0d565b5083816004019080519060200190610a3f929190611d0d565b5082816005019080519060200190610a58929190611d0d565b5042816006018190555081816007019080519060200190610a7a929190611d0d565b50600382604051610a8b919061270b565b9081526020016040518091039020600201600689604051610aac919061270b565b908152602001604051809103902090806001815401808255809150506001900390600052602060002090600802016000909190919091506000820181600001908054610af790612a65565b610b02929190611d93565b506001820181600101908054610b1790612a65565b610b22929190611d93565b50600282015481600201556003820181600301908054610b4190612a65565b610b4c929190611d93565b506004820181600401908054610b6190612a65565b610b6c929190611d93565b506005820181600501908054610b8190612a65565b610b8c929190611d93565b50600682015481600601556007820181600701908054610bab90612a65565b610bb6929190611d93565b5050507fd5d6fd9cf8a3670e221ab164e08279f4b8ec13e6b11a5eb198c76ba6c093eac08888888888884260038a604051610bf1919061270b565b9081526020016040518091039020600101604051610c169897969594939291906127cf565b60405180910390a15050505050505050565b60606000600483604051610c3c919061270b565b90815260200160405180910390208054610c5590612a65565b80601f0160208091040260200160405190810160405280929190818152602001828054610c8190612a65565b8015610cce5780601f10610ca357610100808354040283529160200191610cce565b820191906000526020600020905b815481529060010190602001808311610cb157829003601f168201915b505050505090506000600382604051610ce7919061270b565b9081526020016040518091039020905080600201805480602002602001604051908101604052809291908181526020016000905b828210156110ce578382906000526020600020906008020160405180610100016040529081600082018054610d4f90612a65565b80601f0160208091040260200160405190810160405280929190818152602001828054610d7b90612a65565b8015610dc85780601f10610d9d57610100808354040283529160200191610dc8565b820191906000526020600020905b815481529060010190602001808311610dab57829003601f168201915b50505050508152602001600182018054610de190612a65565b80601f0160208091040260200160405190810160405280929190818152602001828054610e0d90612a65565b8015610e5a5780601f10610e2f57610100808354040283529160200191610e5a565b820191906000526020600020905b815481529060010190602001808311610e3d57829003601f168201915b5050505050815260200160028201548152602001600382018054610e7d90612a65565b80601f0160208091040260200160405190810160405280929190818152602001828054610ea990612a65565b8015610ef65780601f10610ecb57610100808354040283529160200191610ef6565b820191906000526020600020905b815481529060010190602001808311610ed957829003601f168201915b50505050508152602001600482018054610f0f90612a65565b80601f0160208091040260200160405190810160405280929190818152602001828054610f3b90612a65565b8015610f885780601f10610f5d57610100808354040283529160200191610f88565b820191906000526020600020905b815481529060010190602001808311610f6b57829003601f168201915b50505050508152602001600582018054610fa190612a65565b80601f0160208091040260200160405190810160405280929190818152602001828054610fcd90612a65565b801561101a5780601f10610fef5761010080835404028352916020019161101a565b820191906000526020600020905b815481529060010190602001808311610ffd57829003601f168201915b505050505081526020016006820154815260200160078201805461103d90612a65565b80601f016020809104026020016040519081016040528092919081815260200182805461106990612a65565b80156110b65780601f1061108b576101008083540402835291602001916110b6565b820191906000526020600020905b81548152906001019060200180831161109957829003601f168201915b50505050508152505081526020019060010190610d1b565b5050505092505050919050565b60008054906101000a900473ffffffffffffffffffffffffffffffffffffffff1681565b60008054906101000a900473ffffffffffffffffffffffffffffffffffffffff1673ffffffffffffffffffffffffffffffffffffffff163373ffffffffffffffffffffffffffffffffffffffff161461118d576040517f08c379a000000000000000000000000000000000000000000000000000000000815260040161118490612877565b60405180910390fd5b600060048360405161119f919061270b565b908152602001604051809103902080546111b890612a65565b80601f01602080910402602001604051908101604052809291908181526020018280546111e490612a65565b80156112315780601f1061120657610100808354040283529160200191611231565b820191906000526020600020905b81548152906001019060200180831161121457829003601f168201915b50505050509050600483604051611248919061270b565b908152602001604051809103902060006112629190611e20565b600381604051611272919061270b565b9081526020016040518091039020600080820160006112919190611e20565b6001820160006112a19190611e20565b6002820160006112b19190611e60565b5050600260008154809291906112c690612a3b565b919050555060018281548110611305577f4e487b7100000000000000000000000000000000000000000000000000000000600052603260045260246000fd5b90600052602060002001600061131b9190611e20565b7f9808d4fbb93a28c4b0167f8ceefaa91e05e4a5e79afa263469e7dbb85289d080818460405161134c929190612798565b60405180910390a1505050565b60008054906101000a900473ffffffffffffffffffffffffffffffffffffffff1673ffffffffffffffffffffffffffffffffffffffff163373ffffffffffffffffffffffffffffffffffffffff16146113e7576040517f08c379a00000000000000000000000000000000000000000000000000000000081526004016113de90612877565b60405180910390fd5b60006003836040516113f9919061270b565b9081526020016040518091039020905060048160010160405161141c9190612722565b908152602001604051809103902060006114369190611e20565b8060000160048360405161144a919061270b565b908152602001604051809103902090805461146490612a65565b61146f929190611e84565b5081816001019080519060200190611488929190611d0d565b507f0df45492165d3cbdc7a283c4d28a1a18b3d88c9eb0091123f02380edbc05261283836040516114ba929190612798565b60405180910390a1505050565b60608060008054906101000a900473ffffffffffffffffffffffffffffffffffffffff1673ffffffffffffffffffffffffffffffffffffffff163373ffffffffffffffffffffffffffffffffffffffff1614611558576040517f08c379a000000000000000000000000000000000000000000000000000000000815260040161154f90612877565b60405180910390fd5b600060048460405161156a919061270b565b9081526020016040518091039020805461158390612a65565b80601f01602080910402602001604051908101604052809291908181526020018280546115af90612a65565b80156115fc5780601f106115d1576101008083540402835291602001916115fc565b820191906000526020600020905b8154815290600101906020018083116115df57829003601f168201915b505050505090506000600382604051611615919061270b565b908152602001604051809103902060405180606001604052908160008201805461163e90612a65565b80601f016020809104026020016040519081016040528092919081815260200182805461166a90612a65565b80156116b75780601f1061168c576101008083540402835291602001916116b7565b820191906000526020600020905b81548152906001019060200180831161169a57829003601f168201915b505050505081526020016001820180546116d090612a65565b80601f01602080910402602001604051908101604052809291908181526020018280546116fc90612a65565b80156117495780601f1061171e57610100808354040283529160200191611749565b820191906000526020600020905b81548152906001019060200180831161172c57829003601f168201915b5050505050815260200160028201805480602002602001604051908101604052809291908181526020016000905b82821015611b2a5783829060005260206000209060080201604051806101000160405290816000820180546117ab90612a65565b80601f01602080910402602001604051908101604052809291908181526020018280546117d790612a65565b80156118245780601f106117f957610100808354040283529160200191611824565b820191906000526020600020905b81548152906001019060200180831161180757829003601f168201915b5050505050815260200160018201805461183d90612a65565b80601f016020809104026020016040519081016040528092919081815260200182805461186990612a65565b80156118b65780601f1061188b576101008083540402835291602001916118b6565b820191906000526020600020905b81548152906001019060200180831161189957829003601f168201915b50505050508152602001600282015481526020016003820180546118d990612a65565b80601f016020809104026020016040519081016040528092919081815260200182805461190590612a65565b80156119525780601f1061192757610100808354040283529160200191611952565b820191906000526020600020905b81548152906001019060200180831161193557829003601f168201915b5050505050815260200160048201805461196b90612a65565b80601f016020809104026020016040519081016040528092919081815260200182805461199790612a65565b80156119e45780601f106119b9576101008083540402835291602001916119e4565b820191906000526020600020905b8154815290600101906020018083116119c757829003601f168201915b505050505081526020016005820180546119fd90612a65565b80601f0160208091040260200160405190810160405280929190818152602001828054611a2990612a65565b8015611a765780601f10611a4b57610100808354040283529160200191611a76565b820191906000526020600020905b815481529060010190602001808311611a5957829003601f168201915b5050505050815260200160068201548152602001600782018054611a9990612a65565b80601f0160208091040260200160405190810160405280929190818152602001828054611ac590612a65565b8015611b125780601f10611ae757610100808354040283529160200191611b12565b820191906000526020600020905b815481529060010190602001808311611af557829003601f168201915b50505050508152505081526020019060010190611777565b50505050815250509050818160200151935093505050915091565b60008054906101000a900473ffffffffffffffffffffffffffffffffffffffff1673ffffffffffffffffffffffffffffffffffffffff163373ffffffffffffffffffffffffffffffffffffffff1614611bd3576040517f08c379a0000000000000000000000000000000000000000000000000000000008152600401611bca90612877565b60405180910390fd5b6000600383604051611be5919061270b565b9081526020016040518091039020905082600483604051611c06919061270b565b90815260200160405180910390209080519060200190611c27929190611d0d565b5060026000815480929190611c3b90612ac8565b919050555082816000019080519060200190611c58929190611d0d565b5081816001019080519060200190611c71929190611d0d565b50600183908060018154018082558091505060019003906000526020600020016000909190919091509080519060200190611cad929190611d0d565b507ffa51d6f3e231107daaa80215be0fbad1e174715e2fbbc3b9fd6e76141ad4df088383604051611cdf929190612798565b60405180910390a1505050565b60405180606001604052806060815260200160608152602001606081525090565b828054611d1990612a65565b90600052602060002090601f016020900481019282611d3b5760008555611d82565b82601f10611d5457805160ff1916838001178555611d82565b82800160010185558215611d82579182015b82811115611d81578251825591602001919060010190611d66565b5b509050611d8f9190611f11565b5090565b828054611d9f90612a65565b90600052602060002090601f016020900481019282611dc15760008555611e0f565b82601f10611dd25780548555611e0f565b82800160010185558215611e0f57600052602060002091601f016020900482015b82811115611e0e578254825591600101919060010190611df3565b5b509050611e1c9190611f11565b5090565b508054611e2c90612a65565b6000825580601f10611e3e5750611e5d565b601f016020900490600052602060002090810190611e5c9190611f11565b5b50565b5080546000825560080290600052602060002090810190611e819190611f2e565b50565b828054611e9090612a65565b90600052602060002090601f016020900481019282611eb25760008555611f00565b82601f10611ec35780548555611f00565b82800160010185558215611f0057600052602060002091601f016020900482015b82811115611eff578254825591600101919060010190611ee4565b5b509050611f0d9190611f11565b5090565b5b80821115611f2a576000816000905550600101611f12565b5090565b5b80821115611fb15760008082016000611f489190611e20565b600182016000611f589190611e20565b6002820160009055600382016000611f709190611e20565b600482016000611f809190611e20565b600582016000611f909190611e20565b6006820160009055600782016000611fa89190611e20565b50600801611f2f565b5090565b6000611fc8611fc3846128bc565b612897565b905082815260208101848484011115611fe057600080fd5b611feb8482856129f9565b509392505050565b600082601f83011261200457600080fd5b8135612014848260208601611fb5565b91505092915050565b60008135905061202c81612bd8565b92915050565b60006020828403121561204457600080fd5b600082013567ffffffffffffffff81111561205e57600080fd5b61206a84828501611ff3565b91505092915050565b6000806040838503121561208657600080fd5b600083013567ffffffffffffffff8111156120a057600080fd5b6120ac85828601611ff3565b925050602083013567ffffffffffffffff8111156120c957600080fd5b6120d585828601611ff3565b9150509250929050565b600080600080600080600060e0888a0312156120fa57600080fd5b600088013567ffffffffffffffff81111561211457600080fd5b6121208a828b01611ff3565b975050602088013567ffffffffffffffff81111561213d57600080fd5b6121498a828b01611ff3565b965050604061215a8a828b0161201d565b955050606088013567ffffffffffffffff81111561217757600080fd5b6121838a828b01611ff3565b945050608088013567ffffffffffffffff8111156121a057600080fd5b6121ac8a828b01611ff3565b93505060a088013567ffffffffffffffff8111156121c957600080fd5b6121d58a828b01611ff3565b92505060c088013567ffffffffffffffff8111156121f257600080fd5b6121fe8a828b01611ff3565b91505092959891949750929550565b6000806040838503121561222057600080fd5b600083013567ffffffffffffffff81111561223a57600080fd5b61224685828601611ff3565b92505060206122578582860161201d565b9150509250929050565b600061226d83836125bc565b905092915050565b6000612281838361268f565b905092915050565b612292816129bd565b82525050565b60006122a382612922565b6122ad818561295d565b9350836020820285016122bf856128ed565b8060005b858110156122fb57848403895281516122dc8582612261565b94506122e783612943565b925060208a019950506001810190506122c3565b50829750879550505050505092915050565b600061231882612922565b612322818561296e565b935083602082028501612334856128ed565b8060005b8581101561237057848403895281516123518582612261565b945061235c83612943565b925060208a01995050600181019050612338565b50829750879550505050505092915050565b600061238d8261292d565b612397818561297f565b9350836020820285016123a9856128fd565b8060005b858110156123e557848403895281516123c68582612275565b94506123d183612950565b925060208a019950506001810190506123ad565b50829750879550505050505092915050565b600061240282612938565b61240c8185612990565b935061241c818560208601612a08565b61242581612b9e565b840191505092915050565b600061243b82612938565b61244581856129a1565b9350612455818560208601612a08565b61245e81612b9e565b840191505092915050565b600061247482612938565b61247e81856129b2565b935061248e818560208601612a08565b80840191505092915050565b600081546124a781612a65565b6124b181866129a1565b945060018216600081146124cc57600181146124de57612511565b60ff1983168652602086019350612511565b6124e78561290d565b60005b83811015612509578154818901526001820191506020810190506124ea565b808801955050505b50505092915050565b6000815461252781612a65565b61253181866129b2565b9450600182166000811461254c576001811461255d57612590565b60ff19831686528186019350612590565b6125668561290d565b60005b8381101561258857815481890152600182019150602081019050612569565b838801955050505b50505092915050565b60006125a66015836129a1565b91506125b182612baf565b602082019050919050565b60006101008301600083015184820360008601526125da82826123f7565b915050602083015184820360208601526125f482826123f7565b915050604083015161260960408601826126ed565b506060830151848203606086015261262182826123f7565b9150506080830151848203608086015261263b82826123f7565b91505060a083015184820360a086015261265582826123f7565b91505060c083015161266a60c08601826126ed565b5060e083015184820360e086015261268282826123f7565b9150508091505092915050565b600060608301600083015184820360008601526126ac82826123f7565b915050602083015184820360208601526126c682826123f7565b915050604083015184820360408601526126e08282612298565b9150508091505092915050565b6126f6816129ef565b82525050565b612705816129ef565b82525050565b60006127178284612469565b915081905092915050565b600061272e828461251a565b915081905092915050565b600060208201905061274e6000830184612289565b92915050565b6000602082019050818103600083015261276e818461230d565b905092915050565b600060208201905081810360008301526127908184612382565b905092915050565b600060408201905081810360008301526127b28185612430565b905081810360208301526127c68184612430565b90509392505050565b60006101008201905081810360008301526127ea818b612430565b905081810360208301526127fe818a612430565b905061280d60408301896126fc565b818103606083015261281f8188612430565b905081810360808301526128338187612430565b905081810360a08301526128478186612430565b905061285660c08301856126fc565b81810360e0830152612868818461249a565b90509998505050505050505050565b6000602082019050818103600083015261289081612599565b9050919050565b60006128a16128b2565b90506128ad8282612a97565b919050565b6000604051905090565b600067ffffffffffffffff8211156128d7576128d6612b6f565b5b6128e082612b9e565b9050602081019050919050565b6000819050602082019050919050565b6000819050602082019050919050565b60008190508160005260206000209050919050565b600081519050919050565b600081519050919050565b600081519050919050565b6000602082019050919050565b6000602082019050919050565b600082825260208201905092915050565b600082825260208201905092915050565b600082825260208201905092915050565b600082825260208201905092915050565b600082825260208201905092915050565b600081905092915050565b60006129c8826129cf565b9050919050565b600073ffffffffffffffffffffffffffffffffffffffff82169050919050565b6000819050919050565b82818337600083830152505050565b60005b83811015612a26578082015181840152602081019050612a0b565b83811115612a35576000848401525b50505050565b6000612a46826129ef565b91506000821415612a5a57612a59612b11565b5b600182039050919050565b60006002820490506001821680612a7d57607f821691505b60208210811415612a9157612a90612b40565b5b50919050565b612aa082612b9e565b810181811067ffffffffffffffff82111715612abf57612abe612b6f565b5b80604052505050565b6000612ad3826129ef565b91507fffffffffffffffffffffffffffffffffffffffffffffffffffffffffffffffff821415612b0657612b05612b11565b5b600182019050919050565b7f4e487b7100000000000000000000000000000000000000000000000000000000600052601160045260246000fd5b7f4e487b7100000000000000000000000000000000000000000000000000000000600052602260045260246000fd5b7f4e487b7100000000000000000000000000000000000000000000000000000000600052604160045260246000fd5b6000601f19601f8301169050919050565b7f4f6e6c79206f776e65722063616e206163636573730000000000000000000000600082015250565b612be1816129ef565b8114612bec57600080fd5b5056fea264697066735822122077c3c825a31355d21fc153fa3a4aa70a1eacec7a56c820d47e120426a67cf64c64736f6c63430008030033",
  "immutableReferences": {},
  "source": "// SPDX-License-Identifier: UNLICENSED\r\npragma solidity >=0.7.0 <0.9.0;\r\npragma experimental ABIEncoderV2;\r\n\r\ncontract MyContract {\r\n    address public owner = msg.sender;\r\n\r\n    modifier onlyOwner() {\r\n        require(msg.sender == owner, \"Only owner can access\");\r\n        _;\r\n    }\r\n\r\n    struct Student {\r\n        string id;\r\n        string studentNo;\r\n        File[] studentFiles;\r\n        /*\r\n        *\r\n        * This struct includes id, studentNo,studentFiles...\r\n        *\r\n        */\r\n    }\r\n\r\n    struct File {\r\n        string id;\r\n        string fileHash;\r\n        uint256 fileSize;\r\n        string fileType;\r\n        string fileName;\r\n        string fileDescription;\r\n        uint256 uploadTime;\r\n        string studentId;\r\n    }\r\n\r\n    string[] private studentIds;\r\n\r\n    uint256 private studentCount;\r\n    mapping(string => Student) private students;\r\n    mapping(string => string) private studentsNoToId;\r\n\r\n    uint256 private fileCount;\r\n    mapping(string => File) private files;\r\n\r\n    event addStudentEvent(string id, string studentNo);\r\n    event deleteStudentEvent(string id, string studentNo);\r\n    event updateStudentEvent(string id, string studentNo);\r\n    event FileUploaded(\r\n        string fileId,\r\n        string fileHash,\r\n        uint256 fileSize,\r\n        string fileType,\r\n        string fileName,\r\n        string fileDescription,\r\n        uint256 uploadTime,\r\n        string studentNo\r\n    );\r\n\r\n    function getStudent(string memory _studentNo) public view onlyOwner returns(string memory,string memory){\r\n        string memory _id = studentsNoToId[_studentNo];\r\n        Student memory student = students[_id];\r\n        return (_id,student.studentNo);\r\n\r\n    }\r\n\r\n    function addStudent(string memory _id, string memory _studentNo)\r\n    public\r\n    onlyOwner\r\n    {\r\n        Student storage newStudent = students[_id];\r\n        studentsNoToId[_studentNo] = _id;\r\n        studentCount++;\r\n        newStudent.id = _id;\r\n        newStudent.studentNo = _studentNo;\r\n        studentIds.push(_id);\r\n        emit addStudentEvent(_id, _studentNo);\r\n    }\r\n\r\n    function deleteStudent(string memory _studentNo,uint assetIndex) public onlyOwner {\r\n        string memory _id = studentsNoToId[_studentNo];\r\n        delete studentsNoToId[_studentNo];\r\n        delete students[_id];\r\n        studentCount--;\r\n        delete studentIds[assetIndex];\r\n        emit deleteStudentEvent(_id, _studentNo);\r\n    }\r\n\r\n    function updateStudent(string memory _id, string memory _studentNo)\r\n    public\r\n    onlyOwner\r\n    {\r\n        Student storage student = students[_id];\r\n        delete studentsNoToId[student.studentNo];\r\n        studentsNoToId[_studentNo] = student.id;\r\n        student.studentNo = _studentNo;\r\n        emit updateStudentEvent(_id, _studentNo);\r\n    }\r\n\r\n    function uploadFile(\r\n        string memory _id,\r\n        string memory _fileHash,\r\n        uint256 _fileSize,\r\n        string memory _fileType,\r\n        string memory _fileName,\r\n        string memory _fileDescription,\r\n        string memory _studentId\r\n    ) public onlyOwner {\r\n        // Example files[1] = File(1, _fileHash, _fileSize, _fileType, _fileName, _fileDescription, now, msg.sender); // now=timestamp\r\n\r\n        // Make sure the file hash exists\r\n        require(bytes(_fileHash).length > 0);\r\n        // Make sure file type exists\r\n        require(bytes(_fileType).length > 0);\r\n        // Make sure file description exists\r\n        require(bytes(_fileDescription).length > 0);\r\n        // Make sure file fileName exists\r\n        require(bytes(_fileName).length > 0);\r\n        // Make sure uploader address exists\r\n        require(msg.sender != address(0));\r\n        // Make sure file size is more than 0\r\n        require(_fileSize > 0);\r\n\r\n        // Increment file id\r\n        fileCount++;\r\n\r\n        // Add File to the contract\r\n        File storage newFile = files[_id];\r\n        newFile.id = _id;\r\n        newFile.fileHash = _fileHash;\r\n        newFile.fileSize = _fileSize;\r\n        newFile.fileType = _fileType;\r\n        newFile.fileName = _fileName;\r\n        newFile.fileDescription = _fileDescription;\r\n        newFile.uploadTime = block.timestamp;\r\n        newFile.studentId = _studentId;\r\n\r\n        students[_studentId].studentFiles.push(files[_id]);\r\n\r\n        // Trigger an event\r\n        emit FileUploaded(\r\n            _id,\r\n            _fileHash,\r\n            _fileSize,\r\n            _fileType,\r\n            _fileName,\r\n            _fileDescription,\r\n            block.timestamp,\r\n            students[_studentId].studentNo\r\n        );\r\n    }\r\n\r\n    function getFilesOfStudent(string memory studentNo)\r\n    public\r\n    view\r\n    returns (File[] memory)\r\n    {\r\n        string memory id = studentsNoToId[studentNo];\r\n        Student storage student = students[id];\r\n        return student.studentFiles;\r\n    }\r\n\r\n    function getAllStudent() public view onlyOwner returns (Student[] memory){\r\n        Student[] memory studentList = new Student[](studentCount);\r\n        for(uint i = 0; i<studentCount ; i++){\r\n            Student storage student = students[studentIds[i]];\r\n            studentList[i] = student;\r\n        }\r\n        return studentList;\r\n    }\r\n}\r\n",
  "sourcePath": "/home/msk/Downloads/Project/Truffle/contracts/MyContract.sol",
  "compiler": {
    "name": "solc",
    "version": "0.8.3+commit.8d00100c.Emscripten.clang"
  },
  "schemaVersion": "3.3.4",
  "updatedAt": "2021-04-23T15:17:23.986Z",
  "networkType": "ethereum",
  "devdoc": {
    "kind": "dev",
    "methods": {},
    "version": 1
  },
  "userdoc": {
    "kind": "user",
    "methods": {},
    "version": 1
  }
}