{
  "contractName": "MyContract",
  "abi": [
    {
      "anonymous": false,
      "inputs": [
        {
          "indexed": false,
          "internalType": "string",
          "name": "fileId",
          "type": "string"
        },
        {
          "indexed": false,
          "internalType": "string",
          "name": "fileHash",
          "type": "string"
        },
        {
          "indexed": false,
          "internalType": "uint256",
          "name": "fileSize",
          "type": "uint256"
        },
        {
          "indexed": false,
          "internalType": "string",
          "name": "fileType",
          "type": "string"
        },
        {
          "indexed": false,
          "internalType": "string",
          "name": "fileName",
          "type": "string"
        },
        {
          "indexed": false,
          "internalType": "string",
          "name": "fileDescription",
          "type": "string"
        },
        {
          "indexed": false,
          "internalType": "uint256",
          "name": "uploadTime",
          "type": "uint256"
        },
        {
          "indexed": false,
          "internalType": "string",
          "name": "studentNo",
          "type": "string"
        }
      ],
      "name": "FileUploaded",
      "type": "event"
    },
    {
      "anonymous": false,
      "inputs": [
        {
          "indexed": false,
          "internalType": "string",
          "name": "id",
          "type": "string"
        },
        {
          "indexed": false,
          "internalType": "string",
          "name": "studentNo",
          "type": "string"
        }
      ],
      "name": "addStudentEvent",
      "type": "event"
    },
    {
      "anonymous": false,
      "inputs": [
        {
          "indexed": false,
          "internalType": "string",
          "name": "id",
          "type": "string"
        },
        {
          "indexed": false,
          "internalType": "string",
          "name": "studentNo",
          "type": "string"
        }
      ],
      "name": "deleteStudentEvent",
      "type": "event"
    },
    {
      "anonymous": false,
      "inputs": [
        {
          "indexed": false,
          "internalType": "string",
          "name": "id",
          "type": "string"
        },
        {
          "indexed": false,
          "internalType": "string",
          "name": "studentNo",
          "type": "string"
        }
      ],
      "name": "updateStudentEvent",
      "type": "event"
    },
    {
      "inputs": [],
      "name": "owner",
      "outputs": [
        {
          "internalType": "address",
          "name": "",
          "type": "address"
        }
      ],
      "stateMutability": "view",
      "type": "function",
      "constant": true
    },
    {
      "inputs": [
        {
          "internalType": "uint256",
          "name": "",
          "type": "uint256"
        }
      ],
      "name": "studentIds",
      "outputs": [
        {
          "internalType": "string",
          "name": "",
          "type": "string"
        }
      ],
      "stateMutability": "view",
      "type": "function",
      "constant": true
    },
    {
      "inputs": [
        {
          "internalType": "string",
          "name": "_studentNo",
          "type": "string"
        }
      ],
      "name": "getStudent",
      "outputs": [
        {
          "internalType": "string",
          "name": "",
          "type": "string"
        },
        {
          "internalType": "string",
          "name": "",
          "type": "string"
        }
      ],
      "stateMutability": "view",
      "type": "function",
      "constant": true
    },
    {
      "inputs": [
        {
          "internalType": "string",
          "name": "_id",
          "type": "string"
        },
        {
          "internalType": "string",
          "name": "_studentNo",
          "type": "string"
        }
      ],
      "name": "addStudent",
      "outputs": [],
      "stateMutability": "nonpayable",
      "type": "function"
    },
    {
      "inputs": [
        {
          "internalType": "string",
          "name": "_studentNo",
          "type": "string"
        }
      ],
      "name": "deleteStudent",
      "outputs": [],
      "stateMutability": "nonpayable",
      "type": "function"
    },
    {
      "inputs": [
        {
          "internalType": "string",
          "name": "_id",
          "type": "string"
        },
        {
          "internalType": "string",
          "name": "_studentNo",
          "type": "string"
        }
      ],
      "name": "updateStudent",
      "outputs": [],
      "stateMutability": "nonpayable",
      "type": "function"
    },
    {
      "inputs": [
        {
          "internalType": "string",
          "name": "_id",
          "type": "string"
        },
        {
          "internalType": "string",
          "name": "_fileHash",
          "type": "string"
        },
        {
          "internalType": "uint256",
          "name": "_fileSize",
          "type": "uint256"
        },
        {
          "internalType": "string",
          "name": "_fileType",
          "type": "string"
        },
        {
          "internalType": "string",
          "name": "_fileName",
          "type": "string"
        },
        {
          "internalType": "string",
          "name": "_fileDescription",
          "type": "string"
        },
        {
          "internalType": "string",
          "name": "_studentId",
          "type": "string"
        }
      ],
      "name": "uploadFile",
      "outputs": [],
      "stateMutability": "nonpayable",
      "type": "function"
    },
    {
      "inputs": [
        {
          "internalType": "string",
          "name": "studentNo",
          "type": "string"
        }
      ],
      "name": "getFilesOfStudent",
      "outputs": [
        {
          "components": [
            {
              "internalType": "string",
              "name": "id",
              "type": "string"
            },
            {
              "internalType": "string",
              "name": "fileHash",
              "type": "string"
            },
            {
              "internalType": "uint256",
              "name": "fileSize",
              "type": "uint256"
            },
            {
              "internalType": "string",
              "name": "fileType",
              "type": "string"
            },
            {
              "internalType": "string",
              "name": "fileName",
              "type": "string"
            },
            {
              "internalType": "string",
              "name": "fileDescription",
              "type": "string"
            },
            {
              "internalType": "uint256",
              "name": "uploadTime",
              "type": "uint256"
            },
            {
              "internalType": "string",
              "name": "studentId",
              "type": "string"
            }
          ],
          "internalType": "struct MyContract.File[]",
          "name": "",
          "type": "tuple[]"
        }
      ],
      "stateMutability": "view",
      "type": "function",
      "constant": true
    },
    {
      "inputs": [],
      "name": "getAllStudent",
      "outputs": [
        {
          "components": [
            {
              "internalType": "string",
              "name": "id",
              "type": "string"
            },
            {
              "internalType": "string",
              "name": "studentNo",
              "type": "string"
            },
            {
              "components": [
                {
                  "internalType": "string",
                  "name": "id",
                  "type": "string"
                },
                {
                  "internalType": "string",
                  "name": "fileHash",
                  "type": "string"
                },
                {
                  "internalType": "uint256",
                  "name": "fileSize",
                  "type": "uint256"
                },
                {
                  "internalType": "string",
                  "name": "fileType",
                  "type": "string"
                },
                {
                  "internalType": "string",
                  "name": "fileName",
                  "type": "string"
                },
                {
                  "internalType": "string",
                  "name": "fileDescription",
                  "type": "string"
                },
                {
                  "internalType": "uint256",
                  "name": "uploadTime",
                  "type": "uint256"
                },
                {
                  "internalType": "string",
                  "name": "studentId",
                  "type": "string"
                }
              ],
              "internalType": "struct MyContract.File[]",
              "name": "studentFiles",
              "type": "tuple[]"
            }
          ],
          "internalType": "struct MyContract.Student[]",
          "name": "",
          "type": "tuple[]"
        }
      ],
      "stateMutability": "view",
      "type": "function",
      "constant": true
    }
  ],
  "bytecode": "0x6080604052336000806101000a81548173ffffffffffffffffffffffffffffffffffffffff021916908373ffffffffffffffffffffffffffffffffffffffff16021790555034801561005057600080fd5b5061311a806100606000396000f3fe608060405234801561001057600080fd5b50600436106100935760003560e01c80638955895f116100665780638955895f146101325780638da5cb5b1461014e578063bcd90c991461016c578063d029661214610188578063e27bb1f7146101b957610093565b8063133d046014610098578063263c1b7c146100b65780636f28c355146100d25780637998926414610102575b600080fd5b6100a06101d5565b6040516100ad9190612bc9565b60405180910390f35b6100d060048036038101906100cb9190612502565b6108c7565b005b6100ec60048036038101906100e79190612630565b610c63565b6040516100f99190612beb565b60405180910390f35b61011c60048036038101906101179190612455565b610d0f565b6040516101299190612ba7565b60405180910390f35b61014c60048036038101906101479190612455565b6111c2565b005b6101566116d4565b6040516101639190612b8c565b60405180910390f35b61018660048036038101906101819190612496565b6116f8565b005b6101a2600480360381019061019d9190612455565b611866565b6040516101b0929190612c0d565b60405180910390f35b6101d360048036038101906101ce9190612496565b611ee4565b005b606060008054906101000a900473ffffffffffffffffffffffffffffffffffffffff1673ffffffffffffffffffffffffffffffffffffffff163373ffffffffffffffffffffffffffffffffffffffff1614610265576040517f08c379a000000000000000000000000000000000000000000000000000000000815260040161025c90612d0c565b60405180910390fd5b600060025467ffffffffffffffff8111156102a9577f4e487b7100000000000000000000000000000000000000000000000000000000600052604160045260246000fd5b6040519080825280602002602001820160405280156102e257816020015b6102cf61208b565b8152602001906001900390816102c75790505b50905060005b6002548110156108bf576000600360018381548110610330577f4e487b7100000000000000000000000000000000000000000000000000000000600052603260045260246000fd5b906000526020600020016040516103479190612b60565b908152602001604051809103902090508060405180606001604052908160008201805461037390612f2e565b80601f016020809104026020016040519081016040528092919081815260200182805461039f90612f2e565b80156103ec5780601f106103c1576101008083540402835291602001916103ec565b820191906000526020600020905b8154815290600101906020018083116103cf57829003601f168201915b5050505050815260200160018201805461040590612f2e565b80601f016020809104026020016040519081016040528092919081815260200182805461043190612f2e565b801561047e5780601f106104535761010080835404028352916020019161047e565b820191906000526020600020905b81548152906001019060200180831161046157829003601f168201915b5050505050815260200160028201805480602002602001604051908101604052809291908181526020016000905b8282101561085f5783829060005260206000209060080201604051806101000160405290816000820180546104e090612f2e565b80601f016020809104026020016040519081016040528092919081815260200182805461050c90612f2e565b80156105595780601f1061052e57610100808354040283529160200191610559565b820191906000526020600020905b81548152906001019060200180831161053c57829003601f168201915b5050505050815260200160018201805461057290612f2e565b80601f016020809104026020016040519081016040528092919081815260200182805461059e90612f2e565b80156105eb5780601f106105c0576101008083540402835291602001916105eb565b820191906000526020600020905b8154815290600101906020018083116105ce57829003601f168201915b505050505081526020016002820154815260200160038201805461060e90612f2e565b80601f016020809104026020016040519081016040528092919081815260200182805461063a90612f2e565b80156106875780601f1061065c57610100808354040283529160200191610687565b820191906000526020600020905b81548152906001019060200180831161066a57829003601f168201915b505050505081526020016004820180546106a090612f2e565b80601f01602080910402602001604051908101604052809291908181526020018280546106cc90612f2e565b80156107195780601f106106ee57610100808354040283529160200191610719565b820191906000526020600020905b8154815290600101906020018083116106fc57829003601f168201915b5050505050815260200160058201805461073290612f2e565b80601f016020809104026020016040519081016040528092919081815260200182805461075e90612f2e565b80156107ab5780601f10610780576101008083540402835291602001916107ab565b820191906000526020600020905b81548152906001019060200180831161078e57829003601f168201915b50505050508152602001600682015481526020016007820180546107ce90612f2e565b80601f01602080910402602001604051908101604052809291908181526020018280546107fa90612f2e565b80156108475780601f1061081c57610100808354040283529160200191610847565b820191906000526020600020905b81548152906001019060200180831161082a57829003601f168201915b505050505081525050815260200190600101906104ac565b50505050815250508383815181106108a0577f4e487b7100000000000000000000000000000000000000000000000000000000600052603260045260246000fd5b60200260200101819052505080806108b790612f91565b9150506102e8565b508091505090565b60008054906101000a900473ffffffffffffffffffffffffffffffffffffffff1673ffffffffffffffffffffffffffffffffffffffff163373ffffffffffffffffffffffffffffffffffffffff1614610955576040517f08c379a000000000000000000000000000000000000000000000000000000000815260040161094c90612d0c565b60405180910390fd5b600086511161096357600080fd5b600084511161097157600080fd5b600082511161097f57600080fd5b600083511161098d57600080fd5b600073ffffffffffffffffffffffffffffffffffffffff163373ffffffffffffffffffffffffffffffffffffffff1614156109c757600080fd5b600085116109d457600080fd5b600560008154809291906109e790612f91565b919050555060006006886040516109fe9190612b49565b9081526020016040518091039020905087816000019080519060200190610a269291906120ac565b5086816001019080519060200190610a3f9291906120ac565b5085816002018190555084816003019080519060200190610a619291906120ac565b5083816004019080519060200190610a7a9291906120ac565b5082816005019080519060200190610a939291906120ac565b5042816006018190555081816007019080519060200190610ab59291906120ac565b50600382604051610ac69190612b49565b9081526020016040518091039020600201600689604051610ae79190612b49565b908152602001604051809103902090806001815401808255809150506001900390600052602060002090600802016000909190919091506000820181600001908054610b3290612f2e565b610b3d929190612132565b506001820181600101908054610b5290612f2e565b610b5d929190612132565b50600282015481600201556003820181600301908054610b7c90612f2e565b610b87929190612132565b506004820181600401908054610b9c90612f2e565b610ba7929190612132565b506005820181600501908054610bbc90612f2e565b610bc7929190612132565b50600682015481600601556007820181600701908054610be690612f2e565b610bf1929190612132565b5050507fd5d6fd9cf8a3670e221ab164e08279f4b8ec13e6b11a5eb198c76ba6c093eac08888888888884260038a604051610c2c9190612b49565b9081526020016040518091039020600101604051610c51989796959493929190612c44565b60405180910390a15050505050505050565b60018181548110610c7357600080fd5b906000526020600020016000915090508054610c8e90612f2e565b80601f0160208091040260200160405190810160405280929190818152602001828054610cba90612f2e565b8015610d075780601f10610cdc57610100808354040283529160200191610d07565b820191906000526020600020905b815481529060010190602001808311610cea57829003601f168201915b505050505081565b60606000600483604051610d239190612b49565b90815260200160405180910390208054610d3c90612f2e565b80601f0160208091040260200160405190810160405280929190818152602001828054610d6890612f2e565b8015610db55780601f10610d8a57610100808354040283529160200191610db5565b820191906000526020600020905b815481529060010190602001808311610d9857829003601f168201915b505050505090506000600382604051610dce9190612b49565b9081526020016040518091039020905080600201805480602002602001604051908101604052809291908181526020016000905b828210156111b5578382906000526020600020906008020160405180610100016040529081600082018054610e3690612f2e565b80601f0160208091040260200160405190810160405280929190818152602001828054610e6290612f2e565b8015610eaf5780601f10610e8457610100808354040283529160200191610eaf565b820191906000526020600020905b815481529060010190602001808311610e9257829003601f168201915b50505050508152602001600182018054610ec890612f2e565b80601f0160208091040260200160405190810160405280929190818152602001828054610ef490612f2e565b8015610f415780601f10610f1657610100808354040283529160200191610f41565b820191906000526020600020905b815481529060010190602001808311610f2457829003601f168201915b5050505050815260200160028201548152602001600382018054610f6490612f2e565b80601f0160208091040260200160405190810160405280929190818152602001828054610f9090612f2e565b8015610fdd5780601f10610fb257610100808354040283529160200191610fdd565b820191906000526020600020905b815481529060010190602001808311610fc057829003601f168201915b50505050508152602001600482018054610ff690612f2e565b80601f016020809104026020016040519081016040528092919081815260200182805461102290612f2e565b801561106f5780601f106110445761010080835404028352916020019161106f565b820191906000526020600020905b81548152906001019060200180831161105257829003601f168201915b5050505050815260200160058201805461108890612f2e565b80601f01602080910402602001604051908101604052809291908181526020018280546110b490612f2e565b80156111015780601f106110d657610100808354040283529160200191611101565b820191906000526020600020905b8154815290600101906020018083116110e457829003601f168201915b505050505081526020016006820154815260200160078201805461112490612f2e565b80601f016020809104026020016040519081016040528092919081815260200182805461115090612f2e565b801561119d5780601f106111725761010080835404028352916020019161119d565b820191906000526020600020905b81548152906001019060200180831161118057829003601f168201915b50505050508152505081526020019060010190610e02565b5050505092505050919050565b60008054906101000a900473ffffffffffffffffffffffffffffffffffffffff1673ffffffffffffffffffffffffffffffffffffffff163373ffffffffffffffffffffffffffffffffffffffff1614611250576040517f08c379a000000000000000000000000000000000000000000000000000000000815260040161124790612d0c565b60405180910390fd5b60006004826040516112629190612b49565b9081526020016040518091039020805461127b90612f2e565b80601f01602080910402602001604051908101604052809291908181526020018280546112a790612f2e565b80156112f45780601f106112c9576101008083540402835291602001916112f4565b820191906000526020600020905b8154815290600101906020018083116112d757829003601f168201915b5050505050905060405160200161130a90612b77565b60405160208183030381529060405280519060200120816040516020016113319190612b49565b604051602081830303815290604052805190602001201415611388576040517f08c379a000000000000000000000000000000000000000000000000000000000815260040161137f90612cec565b60405180910390fd5b60006001808054905061139b9190612e52565b67ffffffffffffffff8111156113da577f4e487b7100000000000000000000000000000000000000000000000000000000600052604160045260246000fd5b60405190808252806020026020018201604052801561140d57816020015b60608152602001906001900390816113f85790505b5090506000805b6001805490508110156115ea576001818154811061145b577f4e487b7100000000000000000000000000000000000000000000000000000000600052603260045260246000fd5b906000526020600020016040516020016114759190612b60565b604051602081830303815290604052805190602001208460405160200161149c9190612b49565b60405160208183030381529060405280519060200120146115d757600181815481106114f1577f4e487b7100000000000000000000000000000000000000000000000000000000600052603260045260246000fd5b90600052602060002001805461150690612f2e565b80601f016020809104026020016040519081016040528092919081815260200182805461153290612f2e565b801561157f5780601f106115545761010080835404028352916020019161157f565b820191906000526020600020905b81548152906001019060200180831161156257829003601f168201915b50505050508383815181106115bd577f4e487b7100000000000000000000000000000000000000000000000000000000600052603260045260246000fd5b602002602001018190525081806115d390612f91565b9250505b80806115e290612f91565b915050611414565b5081600190805190602001906116019291906121bf565b506002600081548092919061161590612f04565b919050555060048460405161162a9190612b49565b90815260200160405180910390206000611644919061221f565b6003836040516116549190612b49565b908152602001604051809103902060008082016000611673919061221f565b600182016000611683919061221f565b600282016000611693919061225f565b50507f9808d4fbb93a28c4b0167f8ceefaa91e05e4a5e79afa263469e7dbb85289d08083856040516116c6929190612c0d565b60405180910390a150505050565b60008054906101000a900473ffffffffffffffffffffffffffffffffffffffff1681565b60008054906101000a900473ffffffffffffffffffffffffffffffffffffffff1673ffffffffffffffffffffffffffffffffffffffff163373ffffffffffffffffffffffffffffffffffffffff1614611786576040517f08c379a000000000000000000000000000000000000000000000000000000000815260040161177d90612d0c565b60405180910390fd5b60006003836040516117989190612b49565b908152602001604051809103902090506004816001016040516117bb9190612b60565b908152602001604051809103902060006117d5919061221f565b806000016004836040516117e99190612b49565b908152602001604051809103902090805461180390612f2e565b61180e929190612283565b50818160010190805190602001906118279291906120ac565b507f0df45492165d3cbdc7a283c4d28a1a18b3d88c9eb0091123f02380edbc0526128383604051611859929190612c0d565b60405180910390a1505050565b60608060008054906101000a900473ffffffffffffffffffffffffffffffffffffffff1673ffffffffffffffffffffffffffffffffffffffff163373ffffffffffffffffffffffffffffffffffffffff16146118f7576040517f08c379a00000000000000000000000000000000000000000000000000000000081526004016118ee90612d0c565b60405180910390fd5b60006004846040516119099190612b49565b9081526020016040518091039020805461192290612f2e565b80601f016020809104026020016040519081016040528092919081815260200182805461194e90612f2e565b801561199b5780601f106119705761010080835404028352916020019161199b565b820191906000526020600020905b81548152906001019060200180831161197e57829003601f168201915b5050505050905060006003826040516119b49190612b49565b90815260200160405180910390206040518060600160405290816000820180546119dd90612f2e565b80601f0160208091040260200160405190810160405280929190818152602001828054611a0990612f2e565b8015611a565780601f10611a2b57610100808354040283529160200191611a56565b820191906000526020600020905b815481529060010190602001808311611a3957829003601f168201915b50505050508152602001600182018054611a6f90612f2e565b80601f0160208091040260200160405190810160405280929190818152602001828054611a9b90612f2e565b8015611ae85780601f10611abd57610100808354040283529160200191611ae8565b820191906000526020600020905b815481529060010190602001808311611acb57829003601f168201915b5050505050815260200160028201805480602002602001604051908101604052809291908181526020016000905b82821015611ec9578382906000526020600020906008020160405180610100016040529081600082018054611b4a90612f2e565b80601f0160208091040260200160405190810160405280929190818152602001828054611b7690612f2e565b8015611bc35780601f10611b9857610100808354040283529160200191611bc3565b820191906000526020600020905b815481529060010190602001808311611ba657829003601f168201915b50505050508152602001600182018054611bdc90612f2e565b80601f0160208091040260200160405190810160405280929190818152602001828054611c0890612f2e565b8015611c555780601f10611c2a57610100808354040283529160200191611c55565b820191906000526020600020905b815481529060010190602001808311611c3857829003601f168201915b5050505050815260200160028201548152602001600382018054611c7890612f2e565b80601f0160208091040260200160405190810160405280929190818152602001828054611ca490612f2e565b8015611cf15780601f10611cc657610100808354040283529160200191611cf1565b820191906000526020600020905b815481529060010190602001808311611cd457829003601f168201915b50505050508152602001600482018054611d0a90612f2e565b80601f0160208091040260200160405190810160405280929190818152602001828054611d3690612f2e565b8015611d835780601f10611d5857610100808354040283529160200191611d83565b820191906000526020600020905b815481529060010190602001808311611d6657829003601f168201915b50505050508152602001600582018054611d9c90612f2e565b80601f0160208091040260200160405190810160405280929190818152602001828054611dc890612f2e565b8015611e155780601f10611dea57610100808354040283529160200191611e15565b820191906000526020600020905b815481529060010190602001808311611df857829003601f168201915b5050505050815260200160068201548152602001600782018054611e3890612f2e565b80601f0160208091040260200160405190810160405280929190818152602001828054611e6490612f2e565b8015611eb15780601f10611e8657610100808354040283529160200191611eb1565b820191906000526020600020905b815481529060010190602001808311611e9457829003601f168201915b50505050508152505081526020019060010190611b16565b50505050815250509050818160200151935093505050915091565b60008054906101000a900473ffffffffffffffffffffffffffffffffffffffff1673ffffffffffffffffffffffffffffffffffffffff163373ffffffffffffffffffffffffffffffffffffffff1614611f72576040517f08c379a0000000000000000000000000000000000000000000000000000000008152600401611f6990612d0c565b60405180910390fd5b6000600383604051611f849190612b49565b9081526020016040518091039020905082600483604051611fa59190612b49565b90815260200160405180910390209080519060200190611fc69291906120ac565b5060026000815480929190611fda90612f91565b919050555082816000019080519060200190611ff79291906120ac565b50818160010190805190602001906120109291906120ac565b5060018390806001815401808255809150506001900390600052602060002001600090919091909150908051906020019061204c9291906120ac565b507ffa51d6f3e231107daaa80215be0fbad1e174715e2fbbc3b9fd6e76141ad4df08838360405161207e929190612c0d565b60405180910390a1505050565b60405180606001604052806060815260200160608152602001606081525090565b8280546120b890612f2e565b90600052602060002090601f0160209004810192826120da5760008555612121565b82601f106120f357805160ff1916838001178555612121565b82800160010185558215612121579182015b82811115612120578251825591602001919060010190612105565b5b50905061212e9190612310565b5090565b82805461213e90612f2e565b90600052602060002090601f01602090048101928261216057600085556121ae565b82601f1061217157805485556121ae565b828001600101855582156121ae57600052602060002091601f016020900482015b828111156121ad578254825591600101919060010190612192565b5b5090506121bb9190612310565b5090565b82805482825590600052602060002090810192821561220e579160200282015b8281111561220d5782518290805190602001906121fd9291906120ac565b50916020019190600101906121df565b5b50905061221b919061232d565b5090565b50805461222b90612f2e565b6000825580601f1061223d575061225c565b601f01602090049060005260206000209081019061225b9190612310565b5b50565b50805460008255600802906000526020600020908101906122809190612351565b50565b82805461228f90612f2e565b90600052602060002090601f0160209004810192826122b157600085556122ff565b82601f106122c257805485556122ff565b828001600101855582156122ff57600052602060002091601f016020900482015b828111156122fe5782548255916001019190600101906122e3565b5b50905061230c9190612310565b5090565b5b80821115612329576000816000905550600101612311565b5090565b5b8082111561234d5760008181612344919061221f565b5060010161232e565b5090565b5b808211156123d4576000808201600061236b919061221f565b60018201600061237b919061221f565b6002820160009055600382016000612393919061221f565b6004820160006123a3919061221f565b6005820160006123b3919061221f565b60068201600090556007820160006123cb919061221f565b50600801612352565b5090565b60006123eb6123e684612d51565b612d2c565b90508281526020810184848401111561240357600080fd5b61240e848285612ec2565b509392505050565b600082601f83011261242757600080fd5b81356124378482602086016123d8565b91505092915050565b60008135905061244f816130cd565b92915050565b60006020828403121561246757600080fd5b600082013567ffffffffffffffff81111561248157600080fd5b61248d84828501612416565b91505092915050565b600080604083850312156124a957600080fd5b600083013567ffffffffffffffff8111156124c357600080fd5b6124cf85828601612416565b925050602083013567ffffffffffffffff8111156124ec57600080fd5b6124f885828601612416565b9150509250929050565b600080600080600080600060e0888a03121561251d57600080fd5b600088013567ffffffffffffffff81111561253757600080fd5b6125438a828b01612416565b975050602088013567ffffffffffffffff81111561256057600080fd5b61256c8a828b01612416565b965050604061257d8a828b01612440565b955050606088013567ffffffffffffffff81111561259a57600080fd5b6125a68a828b01612416565b945050608088013567ffffffffffffffff8111156125c357600080fd5b6125cf8a828b01612416565b93505060a088013567ffffffffffffffff8111156125ec57600080fd5b6125f88a828b01612416565b92505060c088013567ffffffffffffffff81111561261557600080fd5b6126218a828b01612416565b91505092959891949750929550565b60006020828403121561264257600080fd5b600061265084828501612440565b91505092915050565b600061266583836129fa565b905092915050565b60006126798383612acd565b905092915050565b61268a81612e86565b82525050565b600061269b82612db7565b6126a58185612df2565b9350836020820285016126b785612d82565b8060005b858110156126f357848403895281516126d48582612659565b94506126df83612dd8565b925060208a019950506001810190506126bb565b50829750879550505050505092915050565b600061271082612db7565b61271a8185612e03565b93508360208202850161272c85612d82565b8060005b8581101561276857848403895281516127498582612659565b945061275483612dd8565b925060208a01995050600181019050612730565b50829750879550505050505092915050565b600061278582612dc2565b61278f8185612e14565b9350836020820285016127a185612d92565b8060005b858110156127dd57848403895281516127be858261266d565b94506127c983612de5565b925060208a019950506001810190506127a5565b50829750879550505050505092915050565b60006127fa82612dcd565b6128048185612e25565b9350612814818560208601612ed1565b61281d81613067565b840191505092915050565b600061283382612dcd565b61283d8185612e36565b935061284d818560208601612ed1565b61285681613067565b840191505092915050565b600061286c82612dcd565b6128768185612e47565b9350612886818560208601612ed1565b80840191505092915050565b6000815461289f81612f2e565b6128a98186612e36565b945060018216600081146128c457600181146128d657612909565b60ff1983168652602086019350612909565b6128df85612da2565b60005b83811015612901578154818901526001820191506020810190506128e2565b808801955050505b50505092915050565b6000815461291f81612f2e565b6129298186612e47565b94506001821660008114612944576001811461295557612988565b60ff19831686528186019350612988565b61295e85612da2565b60005b8381101561298057815481890152600182019150602081019050612961565b838801955050505b50505092915050565b600061299e601483612e36565b91506129a982613078565b602082019050919050565b60006129c1601583612e36565b91506129cc826130a1565b602082019050919050565b60006129e4600083612e47565b91506129ef826130ca565b600082019050919050565b6000610100830160008301518482036000860152612a1882826127ef565b91505060208301518482036020860152612a3282826127ef565b9150506040830151612a476040860182612b2b565b5060608301518482036060860152612a5f82826127ef565b91505060808301518482036080860152612a7982826127ef565b91505060a083015184820360a0860152612a9382826127ef565b91505060c0830151612aa860c0860182612b2b565b5060e083015184820360e0860152612ac082826127ef565b9150508091505092915050565b60006060830160008301518482036000860152612aea82826127ef565b91505060208301518482036020860152612b0482826127ef565b91505060408301518482036040860152612b1e8282612690565b9150508091505092915050565b612b3481612eb8565b82525050565b612b4381612eb8565b82525050565b6000612b558284612861565b915081905092915050565b6000612b6c8284612912565b915081905092915050565b6000612b82826129d7565b9150819050919050565b6000602082019050612ba16000830184612681565b92915050565b60006020820190508181036000830152612bc18184612705565b905092915050565b60006020820190508181036000830152612be3818461277a565b905092915050565b60006020820190508181036000830152612c058184612828565b905092915050565b60006040820190508181036000830152612c278185612828565b90508181036020830152612c3b8184612828565b90509392505050565b6000610100820190508181036000830152612c5f818b612828565b90508181036020830152612c73818a612828565b9050612c826040830189612b3a565b8181036060830152612c948188612828565b90508181036080830152612ca88187612828565b905081810360a0830152612cbc8186612828565b9050612ccb60c0830185612b3a565b81810360e0830152612cdd8184612892565b90509998505050505050505050565b60006020820190508181036000830152612d0581612991565b9050919050565b60006020820190508181036000830152612d25816129b4565b9050919050565b6000612d36612d47565b9050612d428282612f60565b919050565b6000604051905090565b600067ffffffffffffffff821115612d6c57612d6b613038565b5b612d7582613067565b9050602081019050919050565b6000819050602082019050919050565b6000819050602082019050919050565b60008190508160005260206000209050919050565b600081519050919050565b600081519050919050565b600081519050919050565b6000602082019050919050565b6000602082019050919050565b600082825260208201905092915050565b600082825260208201905092915050565b600082825260208201905092915050565b600082825260208201905092915050565b600082825260208201905092915050565b600081905092915050565b6000612e5d82612eb8565b9150612e6883612eb8565b925082821015612e7b57612e7a612fda565b5b828203905092915050565b6000612e9182612e98565b9050919050565b600073ffffffffffffffffffffffffffffffffffffffff82169050919050565b6000819050919050565b82818337600083830152505050565b60005b83811015612eef578082015181840152602081019050612ed4565b83811115612efe576000848401525b50505050565b6000612f0f82612eb8565b91506000821415612f2357612f22612fda565b5b600182039050919050565b60006002820490506001821680612f4657607f821691505b60208210811415612f5a57612f59613009565b5b50919050565b612f6982613067565b810181811067ffffffffffffffff82111715612f8857612f87613038565b5b80604052505050565b6000612f9c82612eb8565b91507fffffffffffffffffffffffffffffffffffffffffffffffffffffffffffffffff821415612fcf57612fce612fda565b5b600182019050919050565b7f4e487b7100000000000000000000000000000000000000000000000000000000600052601160045260246000fd5b7f4e487b7100000000000000000000000000000000000000000000000000000000600052602260045260246000fd5b7f4e487b7100000000000000000000000000000000000000000000000000000000600052604160045260246000fd5b6000601f19601f8301169050919050565b7f5468657265206973206e6f2073747564656e742e000000000000000000000000600082015250565b7f4f6e6c79206f776e65722063616e206163636573730000000000000000000000600082015250565b50565b6130d681612eb8565b81146130e157600080fd5b5056fea2646970667358221220ac9d0784cc9a0415eec57e1f8c1c656da009df81bf61981c8099bd64c46adf7b64736f6c63430008030033",
  "immutableReferences": {},
  "source": "// SPDX-License-Identifier: UNLICENSED\r\npragma solidity >=0.7.0 <0.9.0;\r\npragma experimental ABIEncoderV2;\r\n\r\ncontract MyContract {\r\n    address public owner = msg.sender;\r\n\r\n    modifier onlyOwner() {\r\n        require(msg.sender == owner, \"Only owner can access\");\r\n        _;\r\n    }\r\n\r\n    struct Student {\r\n        string id;\r\n        string studentNo;\r\n        File[] studentFiles;\r\n        /*\r\n        *\r\n        * This struct includes id, studentNo,studentFiles...\r\n        *\r\n        */\r\n    }\r\n\r\n    struct File {\r\n        string id;\r\n        string fileHash;\r\n        uint256 fileSize;\r\n        string fileType;\r\n        string fileName;\r\n        string fileDescription;\r\n        uint256 uploadTime;\r\n        string studentId;\r\n    }\r\n\r\n    string[] public studentIds;\r\n\r\n    uint256 private studentCount;\r\n    mapping(string => Student) private students;\r\n    mapping(string => string) private studentsNoToId;\r\n\r\n    uint256 private fileCount;\r\n    mapping(string => File) private files;\r\n\r\n    event addStudentEvent(string id, string studentNo);\r\n    event deleteStudentEvent(string id, string studentNo);\r\n    event updateStudentEvent(string id, string studentNo);\r\n    event FileUploaded(\r\n        string fileId,\r\n        string fileHash,\r\n        uint256 fileSize,\r\n        string fileType,\r\n        string fileName,\r\n        string fileDescription,\r\n        uint256 uploadTime,\r\n        string studentNo\r\n    );\r\n\r\n    function getStudent(string memory _studentNo) public view onlyOwner returns(string memory,string memory){\r\n        string memory _id = studentsNoToId[_studentNo];\r\n        Student memory student = students[_id];\r\n        return (_id,student.studentNo);\r\n\r\n    }\r\n\r\n    function addStudent(string memory _id, string memory _studentNo)\r\n    public\r\n    onlyOwner\r\n    {\r\n        Student storage newStudent = students[_id];\r\n        studentsNoToId[_studentNo] = _id;\r\n        studentCount++;\r\n        newStudent.id = _id;\r\n        newStudent.studentNo = _studentNo;\r\n        studentIds.push(_id);\r\n        emit addStudentEvent(_id, _studentNo);\r\n    }\r\n\r\n    function deleteStudent(string memory _studentNo) public onlyOwner {\r\n        string memory _id = studentsNoToId[_studentNo];\r\n        require((keccak256(abi.encodePacked((_id))) != keccak256(abi.encodePacked((\"\")))),\"There is no student.\");\r\n        string[] memory tempList = new string[](studentIds.length-1);\r\n        uint count = 0;\r\n        for(uint i=0 ; i<studentIds.length ; i++){\r\n            if((keccak256(abi.encodePacked((_id))) != keccak256(abi.encodePacked((studentIds[i]))))){\r\n                tempList[count] = studentIds[i] ;\r\n                count++;\r\n            }\r\n        }\r\n        studentIds = tempList;\r\n        studentCount--;\r\n        delete studentsNoToId[_studentNo];\r\n        delete students[_id];\r\n        emit deleteStudentEvent(_id, _studentNo);\r\n    }\r\n\r\n    function updateStudent(string memory _id, string memory _studentNo)\r\n    public\r\n    onlyOwner\r\n    {\r\n        Student storage student = students[_id];\r\n        delete studentsNoToId[student.studentNo];\r\n        studentsNoToId[_studentNo] = student.id;\r\n        student.studentNo = _studentNo;\r\n        emit updateStudentEvent(_id, _studentNo);\r\n    }\r\n\r\n    function uploadFile(\r\n        string memory _id,\r\n        string memory _fileHash,\r\n        uint256 _fileSize,\r\n        string memory _fileType,\r\n        string memory _fileName,\r\n        string memory _fileDescription,\r\n        string memory _studentId\r\n    ) public onlyOwner {\r\n        // Example files[1] = File(1, _fileHash, _fileSize, _fileType, _fileName, _fileDescription, now, msg.sender); // now=timestamp\r\n\r\n        // Make sure the file hash exists\r\n        require(bytes(_fileHash).length > 0);\r\n        // Make sure file type exists\r\n        require(bytes(_fileType).length > 0);\r\n        // Make sure file description exists\r\n        require(bytes(_fileDescription).length > 0);\r\n        // Make sure file fileName exists\r\n        require(bytes(_fileName).length > 0);\r\n        // Make sure uploader address exists\r\n        require(msg.sender != address(0));\r\n        // Make sure file size is more than 0\r\n        require(_fileSize > 0);\r\n\r\n        // Increment file id\r\n        fileCount++;\r\n\r\n        // Add File to the contract\r\n        File storage newFile = files[_id];\r\n        newFile.id = _id;\r\n        newFile.fileHash = _fileHash;\r\n        newFile.fileSize = _fileSize;\r\n        newFile.fileType = _fileType;\r\n        newFile.fileName = _fileName;\r\n        newFile.fileDescription = _fileDescription;\r\n        newFile.uploadTime = block.timestamp;\r\n        newFile.studentId = _studentId;\r\n\r\n        students[_studentId].studentFiles.push(files[_id]);\r\n\r\n        // Trigger an event\r\n        emit FileUploaded(\r\n            _id,\r\n            _fileHash,\r\n            _fileSize,\r\n            _fileType,\r\n            _fileName,\r\n            _fileDescription,\r\n            block.timestamp,\r\n            students[_studentId].studentNo\r\n        );\r\n    }\r\n\r\n    function getFilesOfStudent(string memory studentNo)\r\n    public\r\n    view\r\n    returns (File[] memory)\r\n    {\r\n        string memory id = studentsNoToId[studentNo];\r\n        Student storage student = students[id];\r\n        return student.studentFiles;\r\n    }\r\n\r\n    function getAllStudent() public view onlyOwner returns (Student[] memory){\r\n        Student[] memory studentList = new Student[](studentCount);\r\n        for(uint i = 0; i<studentCount ; i++){\r\n            Student storage student = students[studentIds[i]];\r\n            studentList[i] = student;\r\n        }\r\n        return studentList;\r\n    }\r\n}\r\n",
  "sourcePath": "/home/msk/Downloads/Project/Truffle/contracts/MyContract.sol",
  "compiler": {
    "name": "solc",
    "version": "0.8.3+commit.8d00100c.Emscripten.clang"
  },
  "schemaVersion": "3.3.4",
  "updatedAt": "2021-04-23T19:15:05.383Z",
  "networkType": "ethereum",
  "devdoc": {
    "kind": "dev",
    "methods": {},
    "version": 1
  },
  "userdoc": {
    "kind": "user",
    "methods": {},
    "version": 1
  }
}