{
  "contractName": "Sample",
  "abi": [
    {
      "inputs": [
        {
          "internalType": "int256",
          "name": "_a",
          "type": "int256"
        },
        {
          "internalType": "int256",
          "name": "_b",
          "type": "int256"
        }
      ],
      "name": "Sum",
      "outputs": [],
      "stateMutability": "nonpayable",
      "type": "function"
    },
    {
      "inputs": [],
      "name": "getSum",
      "outputs": [
        {
          "internalType": "int256",
          "name": "",
          "type": "int256"
        }
      ],
      "stateMutability": "view",
      "type": "function"
    }
  ],
  "bytecode": "0x608060405234801561001057600080fd5b50610229806100206000396000f3fe608060405234801561001057600080fd5b50600436106100365760003560e01c8063569c5f6d1461003b578063eb638f1214610059575b600080fd5b610043610075565b60405161005091906100f4565b60405180910390f35b610073600480360381019061006e91906100a9565b61007e565b005b60008054905090565b808261008a919061010f565b6000819055505050565b6000813590506100a3816101dc565b92915050565b600080604083850312156100bc57600080fd5b60006100ca85828601610094565b92505060206100db85828601610094565b9150509250929050565b6100ee816101a3565b82525050565b600060208201905061010960008301846100e5565b92915050565b600061011a826101a3565b9150610125836101a3565b9250817f7fffffffffffffffffffffffffffffffffffffffffffffffffffffffffffffff038313600083121516156101605761015f6101ad565b5b817f8000000000000000000000000000000000000000000000000000000000000000038312600083121615610198576101976101ad565b5b828201905092915050565b6000819050919050565b7f4e487b7100000000000000000000000000000000000000000000000000000000600052601160045260246000fd5b6101e5816101a3565b81146101f057600080fd5b5056fea2646970667358221220e6f4a6dcac8b609fec94921b247ff9377dd15ffa5068330d2047761d19f859e664736f6c63430008030033",
  "immutableReferences": {},
  "source": "// SPDX-License-Identifier: UNLICENSED\npragma solidity ^0.8.3;\n\ncontract Sample{\n    int sum;\n    function Sum(int _a,int _b) public{\n        sum = _a + _b;\n    }\n    function getSum() public view returns(int){\n        return sum;\n    }\n}",
  "sourcePath": "/home/msk/Downloads/Project/Truffle/contracts/Sample.sol",
  "compiler": {
    "name": "solc",
    "version": "0.8.3+commit.8d00100c.Emscripten.clang"
  },
  "schemaVersion": "3.3.4",
  "updatedAt": "2021-04-02T02:17:10.951Z",
  "devdoc": {
    "kind": "dev",
    "methods": {},
    "version": 1
  },
  "userdoc": {
    "kind": "user",
    "methods": {},
    "version": 1
  }
}