{
  "contractName": "Sample",
  "abi": [
    {
      "constant": false,
      "inputs": [
        {
          "internalType": "int256",
          "name": "_a",
          "type": "int256"
        },
        {
          "internalType": "int256",
          "name": "_b",
          "type": "int256"
        }
      ],
      "name": "Sum",
      "outputs": [],
      "payable": false,
      "stateMutability": "nonpayable",
      "type": "function"
    },
    {
      "constant": true,
      "inputs": [],
      "name": "getSum",
      "outputs": [
        {
          "internalType": "int256",
          "name": "",
          "type": "int256"
        }
      ],
      "payable": false,
      "stateMutability": "view",
      "type": "function"
    }
  ],
  "bytecode": "0x608060405234801561001057600080fd5b5060ca8061001f6000396000f3fe6080604052348015600f57600080fd5b506004361060325760003560e01c8063569c5f6d146037578063eb638f12146053575b600080fd5b603d6088565b6040518082815260200191505060405180910390f35b608660048036036040811015606757600080fd5b8101908080359060200190929190803590602001909291905050506091565b005b60008054905090565b505056fea265627a7a72315820e0969544487e31279f7215c909c556e5657e5d48f0dc867af9b07f6e4c90c85a64736f6c63430005100032",
  "source": "pragma solidity ^0.5.16;\n\ncontract Sample{\n    int sum;\n    function Sum(int _a,int _b) public{\n\n    }\n    function getSum() public view returns(int){\n        return sum;\n    }\n}",
  "sourcePath": "/home/msk/Desktop/479/Truffle/contracts/Sample.sol",
  "compiler": {
    "name": "solc",
    "version": "0.5.16+commit.9c3226ce.Emscripten.clang"
  },
  "schemaVersion": "3.3.4",
  "updatedAt": "2021-03-17T22:23:26.260Z",
  "networkType": "ethereum",
  "devdoc": {
    "methods": {}
  },
  "userdoc": {
    "methods": {}
  }
}